:020000040000FA
:10000000B822FF1FE91F0000BB270000F31F0000FC
:10001000F51F0000F71F0000F91F0000000000009E
:10002000000000000000000000000000FB1F0000B6
:10003000FD1F000000000000FF1F00000120000065
:100040005F310000753100008B310000BD310000D0
:10005000D3310000E9310000FF310000153200000B
:100060002B32000041320000573200006D32000098
:100070008332000099320000AF320000C532000028
:1000800003200000032000000320000003200000E4
:100090000320000003200000AF58000003200000F0
:1000A00003200000032000000D5700002D57000022
:1000B0004D57000003200000032000000320000033
:1000C00003200000032000000320000003200000A4
:1000D0000320000003200000032000000320000094
:1000E0000320000003200000032000000320000084
:1000F00003200000894D000003200000ED4D0000AA
:1001000003200000514E000003200000CF4E0000ED
:1001100003200000334F000003200000974F000031
:1001200003200000B7250000C725000003200000C1
:1001300003200000032000009D3F0000034000005A
:10014000694000000320000003200000032000009D
:10015000315A00003B5A0000455A00004F5A000037
:100160000320000003200000032000000320000003
:1001700003200000032000000320000003200000F3
:1001800003200000CB2C0000312D000003200000D4
:1001900003200000032000000320000009460000A7
:1001A0002F4600005546000037650000CF64000070
:1001B00003200000032000000320000003200000B3
:1001C00003200000032000000320000003200000A3
:1001D0000320000003200000032000000320000093
:1001E0000320000003200000032000000320000083
:10040000FFFFFFFFFFFFFFFFFFFFFFFFFEFFFFFFFD
:10041000DFF80CD006F01EFC00480047E1040000A5
:10042000B822FF1F70B52B48007848BB002420E09D
:10043000002519E004EB8400274901EB8010405DA2
:10044000FF2806D1FE2004EB8401234A02EB811130
:10045000485504EB8400204A02EB8010415D0420E3
:1004600004F02BF9681C85B2B5F5A07FE2DB601CB7
:1004700084B2642CDCDBFF21042004F01EF928E0A8
:10048000002420E0002519E004EB8400134901EB6F
:100490008010405DFF2806D1FE2004EB84010F4A46
:1004A00002EB8111485504EB84000C4A02EB8010EA
:1004B000415D042004F001F9681C85B2B5F5A07F08
:1004C000E2DB601C84B2642CDCDBFF21042004F03E
:1004D000F4F870BD3800FF1F00000020007D0020F0
:1004E00001201A49087000F041F801F055FA184946
:1004F000086001F080FA1749086026E01448006897
:1005000008281ED2DFE800F004070A0D1D1D1D1883
:1005100001F0CBFA18E000F0F2F815E001F0A0FBD2
:1005200012E00F21032003F082FF00F08CF9FFF7A7
:1005300079FF00F0A8F907E00648006801F01DFC0B
:1005400002E001F0B2FA00BF00BFD7E73800FF1F9A
:100550005C00FF1F6000FF1FF8480088012804D1DD
:10056000F7480088401CF6490880704710B502F033
:1005700014F904220F21032003F0F7FE04221A21AC
:10058000104603F0F2FE4FF4E1314BF2E40004F0C8
:10059000B0FB04220721022003F0E7FE042206211B
:1005A000022003F0E2FE02220021012003F0DDFE22
:1005B00002220121084603F0D8FE02221146012042
:1005C00003F0D3FE02220321012003F0CEFE02221B
:1005D0000421012003F0C9FE02220521012003F0BD
:1005E000C4FE02220621012003F0BFFE02220721E1
:1005F000012003F0BAFE0122002149F6C11003F0E8
:10060000B5F9012200214AF28A5003F0AFF9022223
:100610000421002003F0A9FE02220521002003F09E
:10062000A4FE00221146022003F09FFE0021372085
:1006300001F0D6FF40F22730C24908800846008802
:1006400002F014F842F21072002144F2103003F06C
:10065000ABFA42F210720021BB4803F0A5FA42F255
:1006600010720021B94803F09FFA42F21072002183
:10067000B74803F099FA00221146104603F049FAF0
:1006800000220121104603F044FA00220221104604
:1006900003F03FFA00220321104603F03AFA43F632
:1006A0009821002005F046F9AA49002005F0A0F99C
:1006B00001220021084605F047F94FF47A71012024
:1006C00005F038F9AFF26F11012005F091F9012220
:1006D0000021104605F038F942F21071022005F0B1
:1006E00029F99D49022005F083F901220021022009
:1006F00005F02AF905F03FFA05F079FE10BD10B5B6
:1007000096A205210A2005F03AFE9748037897A2A1
:1007100005210A2005F033FE97A205213C2005F0B3
:100720002EFE9748038897A205213C2005F027FE5E
:1007300096A214210A2005F022FE9648038896A26C
:1007400014210A2005F01BFE95A232210A2005F093
:1007500016FE9648037896A232210A2005F00FFE75
:1007600095A232213C2005F00AFE9548038895A207
:1007700032213C2005F003FE94A241210A2005F01D
:10078000FEFD9548037895A241210A2005F0F7FD6A
:1007900095A241213C2005F0F2FD9648037896A2EF
:1007A00041213C2005F0EBFD95A25F210A2005F0D8
:1007B000E6FD9648038896A25F210A2005F0DFFD3A
:1007C00096A25F213C2005F0DAFD9648038896A2A8
:1007D0005F213C2005F0D3FD10BD10B530E00020B6
:1007E00093490870401E934908605B2000F07DF932
:1007F00000BF8F4800780228FBD10024002011E0C0
:1008000000210BE000EB80028B4B03EB8212525C69
:100810008A4B1B889A4200DB641C491CB1F59F7F00
:10082000F0DD401C6228EBDB8548006885490870D4
:10083000022C03DC08460078012800D101E000BF4B
:10084000CDE700BF10BD10B57F48007818B9012072
:100850007D49087002E000207B4908707A480078E2
:10086000012803D174487949086202E07848774941
:10087000086200206E490870401E6E4908605B20C7
:1008800000F033F910BD00BF694800780228FBD1A1
:1008900070471CB50020019000904FF4966A834683
:1008A00022E16C4909880198401A0FFA80F86A49D8
:1008B00009880098401A0FFA80F906EB080006B282
:1008C00007EB090007B2B6F5487F01DB4FF4487625
:1008D00016F5C87F00DC614EB7F5487F01DB4FF4A9
:1008E000487717F5C87F00DC5C4F0AFB08F00BFB6C
:1008F00006040AFB09F00BFB070542F21070844264
:1009000000DB044642F21070854200DB0546544885
:10091000844200DA04465248854200DA0546002C3B
:100920000ADD22460121002003F0F3F800221146DF
:10093000104603F0EEF8A0E094E00000AA00FF1FCC
:10094000A800FF1F4E00FF1F1045080010471000B1
:1009500010491800755A0000AF15000074617267E5
:1009600065743A20202000002E00FF1F746172671A
:1009700065743A256400000074683A202020000065
:100980003000FF1F74683A2564000000746C3A2040
:10099000202000003200FF1F746C3A256400000024
:1009A000636F313A20202020000000003A00FF1F32
:1009B000636F313A2564000037633A20200000005D
:1009C0006600FF1F37633A2564000000737461748A
:1009D000653A2020200000003900FF1F7374617405
:1009E000653A2564000000006A756C693A20202091
:1009F000000000006800FF1F6A756C693A256400FA
:100A000073706565643A2020202000004C00FF1FB1
:100A100073706565643A25640000000078783A20B8
:100A2000202020009A00FF1F78783A2564000000FB
:100A3000D001FF1FA0D00440000000202200FF1FB3
:100A40000012FE433600FF1F3800FF1F00FA00208F
:100A5000007D0020B001FF1FB201FF1F70FEFFFFED
:100A6000F0D8FFFF644200220121104603F051F844
:100A700022460021084603F04CF8002D0ADD2A46E4
:100A80000321002003F045F800220221104603F064
:100A900040F80AE06D4200220321104603F039F8C5
:100AA0002A460221002003F034F81548B0F900006E
:100AB0001449B1F900100844012815DA13E00022A6
:100AC0000121104603F025F800221146104603F0DC
:100AD00020F800220321104603F01BF80022022117
:100AE000104603F016F8EAE7DBE600F01F020121EA
:100AF00091404209920002F1E022C2F800117047D1
:100B0000B001FF1FB201FF1FF0B500230024002237
:100B10000026E24F3E70E24E3678DEB9002016E045
:100B200000210FE000EB8006DE4F07EB8616765CB7
:100B3000DD4F3F88BE4203DB04440B44561CB2B277
:100B40004E1CB1B2B1F59F7FECDD461CB0B26228FD
:100B5000E6DB1AE0002016E000210FE000EB800643
:100B6000D24F07EB8616765CCF4F3F88BE4203DB41
:100B700004440B44561CB2B24E1CB1B2B1F59F7F77
:100B8000ECDD461CB0B26228E6DB022A0ADDB3FBCC
:100B9000F2F6C74F3E80B4FBF2F6C64F3E80012608
:100BA000BE4F3E70C44E3280C44E3578C44E367847
:100BB00056B90026C34F3E70BE4E3688AE4203DAA9
:100BC00001263E70BE4F3E70BB4E3688B42E02DA10
:100BD0000026BB4F3E70F0BD2DE9F0410025BA4E16
:100BE0003570002300240022AD4D2D78002D7DD1DD
:100BF00000BF0026002018E06E2110E000EB800C02
:100C0000DFF8A08208EB8C1C1CF801C0664405F1DB
:100C1000010C1FFA8CF501F1020C1FFA8CF1D2299C
:100C2000ECDB00F1020C1FFA8CF03C28E4DBB6FB95
:100C3000F5FC0CF0FF0707F1140CDFF8908288F840
:100C400000C02B202AE0822122E000EB800CDFF89C
:100C5000548208EB8C1C1CF801C0DFF8708298F8F5
:100C60000080C44510DD00EB800CDFF8388208EB13
:100C70008C1C1CF801C0BCF1910F05DA03440C4434
:100C800002F1010C1FFA8CF201F1010C1FFA8CF138
:100C9000BE29DADB00F1010C1FFA8CF03C28D2DB14
:100CA00000202CE0462124E000EB800CDFF8F481EA
:100CB00008EB8C1C1CF801C0DFF8108298F800804B
:100CC000C44510DD00EB800CDFF8D88108EB8C1CEC
:100CD0001CF801C0BCF1910F05DA03440C4402F189
:100CE000010C1FFA8CF201F1010C00E00AE01FFA7E
:100CF0008CF1FA29D8DB00F1010C1FFA8CF02B28BB
:100D0000D0DB87E000250026032018E06E2110E0EC
:100D100000EB800CDFF8948108EB8C1C1CF801C000
:100D2000664405F1010C1FFA8CF501F1020C1FFA63
:100D30008CF1D229ECDB00F1020C1FFA8CF03C287C
:100D4000E4DBB6FBF5FC0CF0FF0707F1140CDFF851
:100D50007C8188F800C02B202AE0822122E000EB71
:100D6000800CDFF8488108EB8C1C1CF801C0DFF810
:100D70005C8198F80080C44510DD00EB800CDFF842
:100D80002C8108EB8C1C1CF801C0BCF1910F05DA1A
:100D900003440C4402F1010C1FFA8CF201F1010C26
:100DA0001FFA8CF1BE29DADB00F1010C1FFA8CF07E
:100DB0003C28D2DB00202AE0462122E000EB800C18
:100DC000DFF8E88008EB8C1C1CF801C0DFF8FC8021
:100DD00098F80080C44510DD00EB800CDFF8CC8073
:100DE00008EB8C1C1CF801C0BCF1910F05DA034420
:100DF0000C4402F1010C1FFA8CF201F1010C1FFAF4
:100E00008CF1FA29DADB00F1010C1FFA8CF02B28A7
:100E1000D2DB00BF2E4D2A80B3FBF2F52D4E35708C
:100E2000B4FBF2F52C4E35702C4D2D88AA422ADDEC
:100E300035462D78FA2D26DA35462D78462D22DDD9
:100E40000125214E3570154D2D78012D1BD1194DE1
:100E50002D88204E3678B54207DD164D2D781D4E73
:100E60003678AD1B1E4E357006E01A4D2D78114EAA
:100E70003678AD1B1A4E3570194D2D781C2D02DABF
:100E80000025114E35700B4D2D88164E3688B54213
:100E900002DA00250C4E3570BDE8F0812E00FF1FF0
:100EA0003800FF1F000000202200FF1F007D0020EF
:100EB0003200FF1F3000FF1F9A00FF1F2C00FF1F92
:100EC0006A00FF1F3700FF1F6400FF1F6900FF1F3C
:100ED0006600FF1F3400FF1F3500FF1F1E00FF1FAD
:100EE0006800FF1F2000FF1FFE48008898B3FE48DF
:100EF000007803280FD1FD48FD49097830F811002A
:100F000020B940F27230FB49088043E04FF437705B
:100F1000F84908803EE0F448007870B9F548008848
:100F2000B0F54A7F04DB40F27230F249088031E0CC
:100F30004FF43770EF4908802CE0EF480078012823
:100F400004D14FF43770EB49088023E040F272304F
:100F5000E84908801EE0FFE7E7480078012804D14F
:100F60004FF43770E349088003E040F27230E14902
:100F70000880DD48007868B9DE480088B0F54A7F0F
:100F800004DB40F27230DB49088003E04FF4377035
:100F9000D8490880D9480088D94908807047D9487D
:100FA0000078012818D1D8480078D84909888842A3
:100FB00009DAD0480088B0F5567F0DDC40F2593090
:100FC000CC49088008E0CB48008840F2F5218842EF
:100FD00002DD0846C7490880CD480088C849088016
:100FE00070472DE9F041CB480088112803DAEA2444
:100FF00043F63B2512E0C74800882B2803DAB924C2
:1010000043F68D050AE0C3480088462803DA7A24AF
:1010100042F6586502E0732442F66E45BD490988E0
:1010200004FB115005F09AFB8046BB48016840461E
:1010300005F024FB0746B94905F052FB064605F0CA
:10104000B4FBB7490880BDE8F0812DE9F041B5480F
:101050000068082843D1B448A549097830F8110040
:10106000F0B9B248AC490860FFF7BBFFA74909884F
:10107000AB4A1288891AAE4A1288501A05F06EFBE4
:101080000646AC480168304605F0F8FA0546AA491C
:1010900005F09CFA044605F088FB9649088061E05B
:1010A000A6489D490860FFF79CFF984909889C4A1B
:1010B000128811449E4A1288501A05F04FFB0646CA
:1010C0009C480168304605F0D9FA05469A4905F072
:1010D0007DFA044605F069FB8649088042E09448A1
:1010E00000888A49098888421EDA90488A4908603F
:1010F000FFF777FF85490988894A1288891A8C4A3F
:101100001288501A05F02AFB06468A4801683046C4
:1011100005F0B4FA0546884905F058FA044605F08A
:1011200044FB744908801DE084487B490860FFF750
:1011300058FF764909887A4A128811447C4A1288F5
:10114000501A05F00BFB06467A480168304605F058
:1011500095FA0546784905F039FA044605F025FB6D
:101160006449088063480088B0F5467F43DD6148E4
:10117000008840F2363188423DDA7148B0F900000B
:1011800005F0ECFA80466F480168404605F0A8FA81
:1011900004466D48008805F0EAFA0746214605F046
:1011A00015FA05465B48008805F0E1FA064629462F
:1011B00005F010FB04D2654800885149088028E0FA
:1011C0004F48008862490988884222D04C480088EC
:1011D0006049098888421CD05948B0F9000012289B
:1011E00004DD5B4800884649088012E059480088C1
:1011F000434908800DE05248B0F90000192804DD89
:10120000554800883E49088003E0544800883C491E
:101210000880BDE8F08170B5454800883B490988E1
:1012200088421EDA41483C490860FFF7DAFE374938
:1012300009883B4A1288891A3D4A1288501A05F0DB
:101240008DFA06463B480168304605F017FA054618
:10125000394905F0BBF9044605F0A7FA254908808D
:101260001DE036482C490860FFF7BBFE2749098876
:101270002B4A128811442E4A1288501A05F06EFA31
:1012800006462C480168304605F0F8F905462A491B
:1012900005F09CF9044605F088FA164908801D48B7
:1012A0000088102860DA2248008818490988884296
:1012B0000ADD40F226300F490880164800881028C1
:1012C00002DA40F222300880194800880F49098864
:1012D000884249DA4FF44A70064908800D48008870
:1012E00010283DE0C000FF1F4200FF1F2801FF1F24
:1012F0003A00FF1F4E00FF1F3600FF1F0A00FF1FAE
:101300004C00FF1F6400FF1F3500FF1F2400FF1F5C
:101310000C00FF1F3000FF1F1400FF1F0000C84219
:101320006C00FF1F6000FF1FEC00FF1F3333933F73
:101330003200FF1F1800FF1F00C049446666A63F29
:10134000B401FF1F2800FF1F2600FF1F0200FF1F20
:101350000400FF1F0800FF1F0E00FF1F1000FF1FEB
:1013600002DA4FF44B700880024800880249088076
:1013700070BD00000600FF1F4C00FF1F70B500F09D
:10138000A1F84648007801280BD04548008832284B
:1013900007DA4448B0F90000C82802DAFA204249C6
:1013A00008800024002541480088B0F53D7F09DD14
:1013B0003E48008840F25A31884203DA3A480588AC
:1013C00004880BE039480088B0F53D7F03DC3648DF
:1013D0000588048802E03448058804882F4800788E
:1013E00080BB3348008840F27231884218D13148BE
:1013F0000068022806D02F48006850B92E480068BF
:10140000012806D12D4A51882D4A508800F073F9E1
:1014100024E02A4A11882A4A108800F06CF91DE05D
:1014200024480068022806D02248006858B922489B
:101430000068012807D1224A5188204A508800F0CC
:101440005AF90BE006E01E4A11881C4A108800F089
:1014500052F903E02946204600F04DF90F48007884
:1014600001280AD10A2001F09CF90E48B0F90000C9
:10147000122802DA0A2001F094F9084800780328BB
:101480000BD1002607E02946204600F034F903205E
:1014900001F087F9761C022EF5DB70BD3900FF1FC5
:1014A0003000FF1FB401FF1F4C00FF1F5000FF1F43
:1014B0004E00FF1F5C00FF1F6000FF1FE800FF1FC2
:1014C000E400FF1F10B59148008818B990480088C3
:1014D000904908808F4800888D490988401A8E49B4
:1014E000B1F9001048430A2190FBF1F088490988BE
:1014F000081A8649088008460088B0F5377F02DA66
:101500004FF4377008808148008840F27231884279
:1015100002DD08467D4908807C48008801F0A6F875
:1015200010BD70B505460C4642F21070854200DDD4
:1015300005467A48854200DA054642F21070844238
:1015400000DD04467548844200DA0446002D0ADDB9
:1015500000220321104602F0DCFA2A460221002074
:1015600002F0D7FA0AE06D422A460321002002F079
:10157000D0FA00220221104602F0CBFA002C0ADD3C
:1015800000220121104602F0C4FA2246002108463A
:1015900002F0BFFA0AE0644222460121002002F074
:1015A000B8FA00221146104602F0B3FA70BD2DE9D8
:1015B000FF5F0024002500260020039058480068A3
:1015C0005849B1F90010441A574800685749B1F911
:1015D0000010451AA01B02900398281A0190544845
:1015E0000068204452490860524800682844514924
:1015F0000860029805F0B2F882464F4801685046EC
:1016000005F03CF880464A48006805F0A7F80090CD
:101610004A480168009805F031F88246204605F0F6
:101620009DF8009046480168009805F027F8834629
:10163000514604F0CBFF8146414604F0C7FF074600
:1016400005F09AF83F490860019805F087F882464E
:1016500039480168504605F011F880463548006861
:1016600005F07CF8009035480168009805F006F810
:101670008246284605F072F80090314801680098CB
:1016800004F0FCFF8346514604F0A0FF814641462A
:1016900004F09CFF074605F06FF82B4908602448CA
:1016A000006842F21071884202DD08462049086055
:1016B0001F4800681949884202DA08461C49086038
:1016C0001C48006842F21071884202DD0846194940
:1016D0000860184800681149884202DA084615492E
:1016E00008601948016817480068FFF71AFF264686
:1016F0000395BDE8FF9F0A4A10600B4A11607047CE
:1017000000B500210846FFF7F6FF00BD5000FF1F9F
:101710004E00FF1F4400FF1F1C00FF1FF0D8FFFFFB
:101720005400FF1FB001FF1F5800FF1FB201FF1F31
:101730008800FF1F8C00FF1F8400FF1F8000FF1F19
:101740007C00FF1F9000FF1F9400FF1F6E48007871
:10175000012802D0022813D108E00F206B4908802D
:101760000A206B4908806B4908800AE01B20674902
:10177000088010206649088019206649088000E02A
:1017800000BF00BF70476448007860B963480088B4
:10179000B0F5AF7F18DD62480088172814DA012001
:1017A0005D49087010E05D480088B4280CDA56489E
:1017B0000078401C544908705A480078401C594928
:1017C00008700020544908704F4800781D2802DB3B
:1017D00000204D49087000205349087008460078E1
:1017E00040B1504800780978884204DB01204F4915
:1017F000087000E0704700BFFCE710B54C48408817
:101800004C49088000204C4908704C49087004215C
:1018100002F0F4FD10B901204749087005210020AD
:1018200002F0ECFD10B901204449087042480078EC
:10183000012803D041480078012805D1404800889C
:10184000401C3F49088002E000203D49088039489B
:101850000088012803D10A203A49087002E00520D7
:1018600038490870364800883649097888420BDDC7
:1018700040F2273000F0FAFE33490846FFF73BFFFD
:101880004FF4FA7000F08DFF10BD304800783049F9
:101890000978884203D02D4800782E4908702C48DA
:1018A00000782A4908702C4800882C4908800420B8
:1018B00005E0411E2A4A515C1154411EC8B200285D
:1018C000F7DC1148007826490870092005E0411E20
:1018D000244A515C1154411EC8B20028F7DC1C4850
:1018E000007820490870092007E0411E1E4A32F89E
:1018F000111022F81010411EC8B20028F5DC07486C
:1019000000881949088070473A00FF1F0200FF1F36
:101910000400FF1F0800FF1F9C00FF1F9A00FF1F0D
:101920003000FF1F9D00FF1F9F00FF1F6E00FF1F65
:10193000B400FF1FA200FF1FA400FF1FA500FF1F90
:10194000A600FF1FA000FF1F70FEFFFF4200FF1F49
:101950003900FF1F9E00FF1F4E00FF1F4400FF1FA6
:101960003B00FF1FD801FF1FE201FF1F0849098844
:1019700029B90121064A11800021064A118000BFC1
:10198000044909888142FBDB0021014A118070472C
:10199000AA00FF1FA800FF1F10B50021012002F0C0
:1019A0002DFD10B901202E4908800121084602F0C2
:1019B00025FD10B901202A4948800221012002F0AA
:1019C0001DFD10B90120264988800321012002F065
:1019D00015FD10B901202249C880214800882049FE
:1019E0004988022202FB01001D498988042202FB6A
:1019F0000104204610BD10B50421012002F0FEFCB8
:101A000010B90120174908800521012002F0F6FCD9
:101A100010B90120134948800621012002F0EEFC94
:101A200010B901200F4988800721012002F0E6FC4F
:101A300010B901200B49C8800A4800880949498823
:101A4000022202FB010007498988042202FB0100EF
:101A50000449C988082202FB0104204610BD000089
:101A6000AC00FF1FB400FF1F10B56048007828B914
:101A70005F480088401C5E49088002E000205C4905
:101A800008805B480088C8280EDD40F2273000F04F
:101A9000EDFD58490846FFF72EFE4FF42F7000F079
:101AA00080FE00205249088010BDFEF796FE524885
:101AB00000885249088050488088514908804E4823
:101AC000C0885049088050484C49098830F81100B6
:101AD0004E4908804E484949098830F811004D495F
:101AE00008804D484549098830F811004B49088065
:101AF0004B484249098830F811004A4908804A4851
:101B00003E49098830F811004849088048483B4957
:101B1000098830F811004749088047483749098843
:101B200030F811004549088045483449098830F8A3
:101B300011004449088057E0434800684349087051
:101B40000F21032002F073FCFEF77DFEFEF7DCFFA1
:101B5000FFF742F800203E4908702448007818B981
:101B600000203C49087011E03B480078012803D16F
:101B700003203849087009E035480078012802D16F
:101B80003449087002E00220324908703148007878
:101B900030B1012807D0022808D003280CD108E072
:101BA000FFF7A2F90BE0FFF7FAF908E0FFF74DFAAB
:101BB00005E0FFF730FB02E0FFF796F900BF00BF3A
:101BC000FFF7DCFBFFF7DFFD2448007808B1FFF7E3
:101BD00097FDFEF758FEFFF758FEFFF70EFE084888
:101BE000008808B1FFF740FFA6E700002E00FF1FA6
:101BF000C200FF1F70FEFFFFB400FF1FBC00FF1FED
:101C0000BE00FF1FC000FF1FC400FF1F0200FF1F18
:101C1000C800FF1F0400FF1FCC00FF1F0600FF1FAE
:101C2000D000FF1F0800FF1FD400FF1F0A00FF1F86
:101C3000D800FF1F0C00FF1FDC00FF1F0E00FF1F5E
:101C4000E000FF1F1000FF1F0012FE433600FF1FC1
:101C50006400FF1F3900FF1F3700FF1F6E00FF1FCA
:101C6000FEF7BBFD5AE04E4800684E4908700F2150
:101C7000032002F0DCFBFEF7E6FDFEF745FFFEF772
:101C8000ABFF4948C08810B900204849087048484F
:101C9000007818B900204749087011E046480078DC
:101CA000012803D103204349087009E03F48007828
:101CB000012802D13F49087002E002203D49087026
:101CC0003C48007830B1012807D0022808D003280A
:101CD0000CD108E0FFF708F909E0FFF760F906E02A
:101CE000FFF7B3F903E0FFF796FA00E000BF00BF8B
:101CF000FFF744FBFFF747FD3048007810B1FFF7CE
:101D0000FFFC03E0C8210846FFF7F5FCFEF7BBFD2A
:101D1000FFF7BBFDFFF771FDFFF7A6FEA3E717E096
:101D200064210846FFF7E7FC4FF4FA70FFF71EFE48
:101D30000F21032002F07BFB00210846FFF7DBFCAC
:101D40004FF4FA70FFF712FE0F21032002F06FFB31
:101D5000E6E74FF416710846FFF7CDFC4FF47A70B2
:101D6000FFF704FE01E0FFF7CBFCFCE704E041F2E3
:101D700070710846FFF7D5FBF9E710B5044624B1AA
:101D8000012C04D0022C06D103E0FFF7EFFFFFF790
:101D9000E0FFFFF7C4FFFFF7B3FC00BF00BF10BDBB
:101DA0000012FE433600FF1FAC00FF1F6400FF1F40
:101DB0002E00FF1F3900FF1F3700FF1F6E00FF1F9F
:101DC0004CF220508049C8814DF62810C8814FF44C
:101DD000E97008804FF0FF307C49486400207C495E
:101DE00008707A48406820F0010078494860242053
:101DF000784948709A2008700846C07800F01F00A3
:101E0000C870032008710020487100BF71488079B4
:101E100000F002000028F9D000BF6E48807900F081
:101E200010000028F9D100BF6A48807900F00C004A
:101E30000828F9D10C20674908715C204871664870
:101E40006249486400BF6348807900F020000028A0
:101E5000F9D000BF5F48807900F040000028F9D039
:101E60001A205C49087000BF5A48807900F00C00C5
:101E70000C28F9D100BF5748807900F040000028B5
:101E8000F9D07047534A127802F0C002002A67D195
:101E9000504A527902F04002002A51D14D4A12783C
:101EA00002F00402C2B94B4A127B02F001020AB9E5
:101EB0004A4801E04FF40040464A1278C2F3C20398
:101EC00001229A40D1B2B0FBF1F0424A527802F0BE
:101ED00030021AB1400901E04FF400403D4AD27887
:101EE00002F0E00202F01F0343BB5211082A25D280
:101EF000DFE802F004080C1014181C2000EB80022C
:101F0000D0011CE000EB8002100218E0C0EB0012D0
:101F1000D00114E000EB8002500210E04FF4377261
:101F200050430CE04FF4B762504308E040F695028E
:101F3000504304E040F67132504300E000BF38E007
:101F4000244A127902F01F02511C244AB2FBF1F01C
:101F5000204A527902F01F0202F11801484328E09A
:101F60001C4A127802F0C002402A11D1194A527854
:101F700002F0010212B94FF400401AE0154A127A39
:101F8000C2F3420301229A40154BB3FBF2F010E07A
:101F9000104A127802F0C002802A09D10D4A127B41
:101FA00002F001020AB90D4803E04FF4004000E0DE
:101FB0007047064A526C012303EB1272B0FBF2F237
:101FC000084B1A6000BFF3E7002005400080044082
:101FD00000500640004006400000170180F0FA0261
:101FE00000093D006401FF1F06488047064800477E
:101FF000FEE7FEE7FEE7FEE7FEE7FEE7FEE7FEE7B9
:10200000FEE7FEE7C11D0000110400000246F9488A
:1020100050F8220050F8210000F0800008B10020A4
:1020200070470120FCE770B5134633B1012B1CD07B
:10203000022B25D0032B48D13CE0EF4C225602F076
:102040001F050124AC40ED4D560945F8264000BF60
:10205000E84A52F8202052F8212022F04002E54CB4
:1020600054F8204044F8212030E0E24A52F8202081
:10207000126A22F00402DF4C54F82040226225E06C
:10208000DC4A52F8202052F8212042F04002D94C7C
:1020900054F8204044F82120D74C225602F01F0566
:1020A0000124AC405509AD0005F1E025C5F800411B
:1020B00000BF0BE0CF4A52F82020126A42F004021F
:1020C000CC4C54F82040226200E000BF00BF70BD3D
:1020D000F0B50446C74850F82400406A40F00300B9
:1020E000C44951F824104862C24850F82400406A9C
:1020F00040F00300BF4951F824104862BD4850F831
:102100002400806840F00300BA4951F82410886028
:10211000B84850F82400406A40F04000B54951F8F2
:1021200024104862B34850F82400406A40F0800010
:10213000B04951F824104862002211462046FFF7AA
:1021400072FF002700E07F1CAD488742FBD3A948FF
:1021500050F82400406A00F0400008B10120F0BDB2
:102160000025A44850F82400C06C0544A14850F84C
:102170002400806C05449F4850F82400406C0544BE
:102180009C4850F82400006C05449A4850F82400FC
:10219000C06B0544974850F82400806B05444FF409
:1021A000004040EA55050026924850F82400C06ED1
:1021B0000644904850F82400806E06448D4850F83C
:1021C0002400406E06448B4850F82400006E0644FC
:1021D000884850F82400C06D0644864850F8240012
:1021E000806D06444FF4004040EA5606814850F89E
:1021F0002400406A20F080007E4951F82410486293
:102200007C4850F82400C5627A4850F824000663E0
:102210000020A4E710B504467A49206851F8300040
:102220000068784A216802EBC101496808432168C7
:1022300052F8311008602068FFF74AFF6D492068A6
:1022400051F82000806820F003006A4A216852F8A3
:10225000211088601146206851F82000806861795B
:1022600001F003010843216852F8211088601146EB
:10227000206851F82000006A20F00300216852F81D
:10228000211008621146206851F82000006AA17AE6
:1022900001F003010843216852F821100862114639
:1022A000206851F82000806820F00C00216852F866
:1022B000211088601146206851F820008068A179BB
:1022C0000C2202EA810108434A4A216852F821108F
:1022D0008860207901280BD11146206851F8200030
:1022E000006A40F04000216852F8211008620BE0BB
:1022F0004049206851F82000006A00F040003D4A43
:10230000216852F821100862207A60B939492068A2
:1023100051F82000406A40F00800364A216852F81F
:10232000211048620BE03349206851F82000406AD0
:1023300020F008002F4A216852F821104862607A84
:1023400005287AD2DFE800F00310263E6000294914
:10235000206851F82000406A20F00300254A2168D7
:1023600052F82110486269E02249206851F82000A3
:10237000406A20F003001F4A216852F82110486289
:102380001146206851F82000406A216852F8211057
:10239000486253E01749206851F82000406A20F055
:1023A0000300144A216852F821104862114620683F
:1023B00051F82000406A40F00100216852F82110D5
:1023C00048623BE00B49206851F82000406A20F049
:1023D0000300084A216852F821104862114620681B
:1023E00051F82000406A40F00200216852F82110A4
:1023F000486223E0EC7600000477000080E100E012
:10240000A0860100F47600007349206851F820008E
:10241000406A20F00300704A216852F82110486297
:102420001146206851F82000406A40F003002168FE
:1024300052F82110486201E0FFE700BF00BF10BD65
:1024400051B1654A52F82020126A42F04002624BB4
:1024500053F820301A6209E05F4A52F82020126ACD
:1024600002F040025C4B53F820301A62704749B9C1
:10247000594A52F82020D26822F01002564B53F8E5
:102480002030DA60012909D1534A52F82020D2685D
:1024900042F01002504B53F82030DA60704773B5A9
:1024A00084B00E4604AC207800F0070001900120B3
:1024B0008DF809008DF80A6000208DF808008DF86D
:1024C0000B0001208DF80C0000208DF80D008DF818
:1024D0000E00002518E02388C3F38212C3F34423BF
:1024E0002B44D9B22378C3F3C20001F0F9FD22884E
:1024F000C2F344222A44D1B22278C2F3C20000229D
:1025000001F013FE681CC5B22068C0F38430A842F5
:10251000E1DC01A8FFF77EFE2268110E227802F0AE
:102520000700FFF7A4FF207800F0070006B070BD99
:1025300010B5294B53F8203053F8223023F01F03F5
:10254000254C54F8204044F82230234B53F82030D7
:1025500053F8223001F01F0423431F4C54F820404D
:1025600044F8223010BD02461B4850F822001030BB
:1025700050F82100704771B56C46207800F00705CF
:102580002068C0F3C446002231462846FFF7D0FF3A
:1025900000BF114850F82500006800F080000028B6
:1025A000F7D000212846FFF7DEFF78BD11B10B4AB6
:1025B00042F82010704710B50848006810B107496C
:1025C0000868804710BD10B50448406810B1034941
:1025D0004868804710BD0000EC7600006801FF1FCE
:1025E00038B505460C466946022000F05BF82A48DB
:1025F000406B40F004002849486302220721032071
:1026000001F06EFD0A20254988720020487105EB13
:10261000850000010099B1FBF0F021490880200AF3
:102620001E498871CC711E480088001B000A087280
:102630001B480078001B48720846407920F00400CF
:1026400048710846407940F00800487108464079D2
:1026500040F0010048710846007940F040000871E0
:102660000846007940F02000087138BD0C490988FF
:10267000414342F2107291FBF2F188B2010A074A1B
:102680009171D07106490988091A090A1172044921
:102690000978091A517270470080044000200640F2
:1026A0007001FF1F10B5034600224448406C01240E
:1026B00004EB1070424C246800FB04F2062B2AD273
:1026C000DFE803F0030C15291E273C48406C012469
:1026D00004EB1070B2FBF0F008601EE03748406C6D
:1026E000012404EB1070B2FBF0F0086015E03348F1
:1026F000406CC0F30360401CB2FBF0F008600CE0DB
:102700002E48406CC0F30340401CB2FBF0F0086060
:1027100003E00A6001E0012010BD00BF0020FBE7DC
:1027200001460868704703B5684602680A600CBD38
:102730002448006840F08070224908602248006800
:1027400040F0010020490860704730B501461E4C3A
:1027500062681B4C24681D4DB4FBF5F404FB01F3C7
:10276000D018904205D900BF174C64688442FBD34F
:1027700009E000BF144C64688442FBD800BF124CCF
:1027800064688442FBD330BD10B504464FF47A71BF
:1027900004FB01F0FFF7D9FF10BD00B5FFF7C8FF3C
:1027A00000BD10B504462046FFF7EEFF10BD10B582
:1027B00004462046FFF7C9FF10BD70470080044063
:1027C0006401FF1FFCED00E0001000E040420F003C
:1027D000FE49C96A41F48051FC4AD162017901295C
:1027E00002D002291ED10EE0F94A016852F82110E8
:1027F00091F8211041F02001F54B026853F8222096
:1028000082F821100FE0F24A016852F8211091F885
:10281000211021F02001EE4B026853F8222082F8AB
:10282000211000E000BF00BF417931B1012913D070
:10283000022938D003297DD15EE0E54A016852F8CB
:10284000211091F8221021F00101E14B026853F8A8
:10285000222082F822107BE0DD4A016852F8211024
:1028600091F8221041F00101D94B026853F822205F
:1028700082F822101A46016852F8211091F82210AD
:1028800021F00601026853F8222082F822101A462D
:10289000016852F8211091F82210026853F82220A2
:1028A00082F8221054E0CA4A016852F8211091F8C7
:1028B000221041F00101C64B026853F8222082F831
:1028C00022101A46016852F8211091F8221021F0C6
:1028D0000601026853F8222082F822101A46016885
:1028E00052F8211091F8221041F00201026853F8C9
:1028F000222082F822102BE0B54A016852F82110FC
:1029000091F8221041F00101B14B026853F82220E6
:1029100082F822101A46016852F8211091F822100C
:1029200021F00601026853F8222082F822101A468C
:10293000016800E00BE052F8211091F8221041F0FC
:102940000401026853F8222082F8221000E000BF40
:1029500000BF817911B101291ED10EE09C4A0168A6
:1029600052F8211091F8211021F04001984B026893
:1029700053F8222082F821100FE0954A016852F89E
:10298000211091F8211041F04001914B026853F859
:10299000222082F8211000E000BF00BF8C4A0168AD
:1029A00052F8211091F8201021F00101884B0268A3
:1029B00053F8222082F820101A46016852F821109C
:1029C00091F8201021F00201026853F8222082F8C9
:1029D00020101A46016852F8211091F8201021F0B9
:1029E0000401026853F8222082F820101A46016878
:1029F00052F8211091F8211041F08001026853F83B
:102A0000222082F8211070470146714850F82100B9
:102A100090F82300000970476D4A52F8202092F880
:102A2000232022F0F0026A4B53F8203083F8232051
:102A3000674A52F8202092F82320F02303EA01137A
:102A40001A43634B53F8203083F823207047604AC1
:102A500052F8202092F8232022F00F025C4B53F80A
:102A6000203083F823205A4A52F8202092F823205D
:102A700001F00F031A43564B53F8203083F82320FC
:102A8000704770B504460D46082D7CD2DFE805F08E
:102A900010041D2E3F5069844E49085700F01F0254
:102AA000012191404C4A430942F8231000BF96E0AF
:102AB000474850F8240090F8220020F08000444954
:102AC00051F8241081F8220089E0414850F8240090
:102AD00090F8210040F004003D4951F8241081F89D
:102AE00021003C49085700F056F978E0384850F882
:102AF000240090F8210040F00200354951F82410DC
:102B000081F821003349085700F045F967E0304863
:102B100050F8240090F8210040F001002C4951F8B1
:102B2000241081F821002B49085700F034F956E0B1
:102B3000274850F8240090F8210040F00400244970
:102B400051F8241081F82100214850F8240090F811
:102B5000220040F080001E4951F8241081F8220024
:102B60003DE01B4850F8240090F8210040F002009E
:102B7000174951F8241081F82100154850F8240015
:102B800090F8220000E029E040F08000104951F860
:102B9000241081F8220022E00D4850F8240090F81B
:102BA000210040F001000A4951F8241081F8210069
:102BB000074850F8240090F8220040F080000449B3
:102BC00051F8241081F8220009E000000080044040
:102BD000087700001077000080E100E000BF00BF30
:102BE00070BD724951F8201091F8211041F0100188
:102BF0006E4A52F8202082F8211070476B4A52F832
:102C0000202092F8222022F01802684B53F820303E
:102C100083F8222031B101290FD002291AD00329CB
:102C200032D124E0614A52F8202092F822205F4BF2
:102C300053F8203083F8222027E05C4A52F8202005
:102C400092F8222042F00802584B53F8203083F8C3
:102C500022201AE0554A52F8202092F8222042F011
:102C60001002524B53F8203083F822200DE04F4AD7
:102C700052F8202092F8222042F018024B4B53F8D1
:102C8000203083F8222000E000BF00BF704730B53D
:102C90000346002011E011F81040444D55F8235030
:102CA00005F8104031F81040240A404D55F82350E3
:102CB00005EB40056C70441CE0B29042EBDB30BD8C
:102CC00011B13B4A42F82010704710B537480068F0
:102CD00090F8214004F0040048B13448006890F8AE
:102CE000200020F004003149096881F8200004F038
:102CF000010048B12D48006890F8200020F0010044
:102D00002A49096881F8200004F0020048B12748E8
:102D1000006890F8200020F002002449096881F83A
:102D200020002348006810B121490868804710BD81
:102D300010B51E48006890F8214004F0040048B126
:102D40001A48006890F8200020F00400174909682C
:102D500081F8200004F0010048B11448006890F8A0
:102D6000200020F001001149096881F8200004F0DA
:102D7000020048B10D48006890F8200020F00200E1
:102D80000A49096881F820000948406810B10849DB
:102D90004868804710BD00F01F02012191404209A0
:102DA000920002F1E022C2F800117047087700009B
:102DB0007401FF1F00F00F01F94A9176704710B5BA
:102DC0000446F848C06B40F00200F649C863084664
:102DD000006C40F0020008642378F148C0680121CB
:102DE00099408843EE49C860607800F03F00EE49A2
:102DF0005854A07910B101280ED106E0EA48185CB9
:102E000020F04000E849585407E0E748185C40F0DB
:102E10004000E549585400E000BF00BF0021E348EE
:102E200000EB4310C180E14800EB431081836088D0
:102E3000DE4901EB43118860A088C0F30E01DB4836
:102E400000EB4310C182A088C0F30E01D74800EB0D
:102E50004310C183D54800EB4310E168016020892D
:102E600081B2D24800EB43108180D04800EB431080
:102E7000C188207C4FF4E06202EA00200143CB4885
:102E800000EB4310C180C94800EB4310C088217E8D
:102E90004FF4784202EAC1210843C44901EB4311CF
:102EA000C880C24901EB43116069C860BF4800EBAC
:102EB0004310216A0161A08B81B2BC4800EB431032
:102EC0008182BA4800EB4310C18894F8240000F0D6
:102ED00007000143B54800EB4310C180B34800EB45
:102EE0004310C08894F82C10F82202EAC10108436C
:102EF000AE4901EB4311C880AC4901EB4311A06A14
:102F00008861AA4800EB4310808B40F00801A74875
:102F100000EB431081834CF20A01A44800EB4310FC
:102F20008183A148185C40F080009F49585418469E
:102F3000FFF740FF9A48406A0121994008439849A9
:102F40004862184610BD202200210FE00120884071
:102F5000974B1B68184040B901208840944B1B6870
:102F60001843934B186008467047491C9142EDD3B3
:102F70000020F9E7012181408D4A12688A438C497B
:102F80000A6070470146894800EB4110C08AC0F3CF
:102F90000E007047854A02EB4012D28AD30BDB0346
:102FA000824A02EB4012D382804A02EB4012D28A5C
:102FB000C1F30E031A437D4B03EB4013DA827047D3
:102FC00000F00F01764AD176704751B1774A02EB93
:102FD0004012928B42F00803744A02EB4012938332
:102FE00009E0724A02EB4012928B22F008036F4A0A
:102FF00002EB40129383704710B50AB36B4B03EB9F
:1030000040139B8B43F02004684B03EB40139C83DD
:10301000664B03EB40139B8B23F47064634B03EB11
:1030200040139C83614B03EB40139B8B4FF4706404
:1030300004EA012423435D4C04EB4014A38309E01C
:103040005A4B03EB40139B8B23F02004574B03EBAD
:1030500040139C8310BD30B50B466AB1554C2156C8
:1030600001F01F050124AC404D09AD0005F1E0253C
:10307000C5F8004100BF00BF13B1012B2ED116E0EF
:1030800052B14A4901EB4011898B41F00404474990
:1030900001EB40118C8309E0444901EB4011898B1D
:1030A00021F00404414901EB40118C8317E052B137
:1030B0003E4901EB4011898B41F002043B4901EB91
:1030C00040118C8309E0394901EB4011898B21F0D3
:1030D0000204364901EB40118C8300E000BF00BFC1
:1030E00030BD11B1344A42F82010704701462C48D7
:1030F000C06801228A40104070B12C4800EB41109A
:10310000808B00F0800028B101F00F00244A107776
:10311000002070470120FCE701F00F00204A1077E3
:103120000020F6E7214A02EB401211617047014688
:103130001E4800EB4110006970471C4A02EB401228
:10314000116070470146194800EB41100068704754
:103150001348006840F4003011490860704710B50A
:1031600000200F49C8771448006810B11249086858
:10317000804710BD10B501200949C8770E48406846
:1031800010B10D494868804710BD10B502200449B0
:10319000C8770948806810B107498868804710BD22
:1031A0000080004000800440001002400090004079
:1031B0007C01FF1F12770000F801FF1F10B50320EC
:1031C0004649C8774648C06810B14549C868804735
:1031D00010BD10B504204149C8774148006910B1BD
:1031E0003F490869804710BD10B505203B49C877A5
:1031F0003B48406910B13A494869804710BD10B555
:1032000006203649C8773648806910B13449886944
:10321000804710BD10B507203049C8773048C069D5
:1032200010B12F49C869804710BD10B508202B493F
:10323000C8772B48006A10B12949086A804710BD39
:1032400010B509202549C8772548406A10B124499E
:10325000486A804710BD10B50A202049C877204829
:10326000806A10B11E49886A804710BD10B50B20D6
:103270001A49C8771A48C06A10B11949C86A804704
:1032800010BD10B50C201549C8771548006B10B15A
:103290001349086B804710BD10B50D200F49C87742
:1032A0000F48406B10B10E49486B804710BD10B5F8
:1032B0000E200A49C8770A48806B10B10849886B0C
:1032C000804710BD10B50F200449C8770448C06B73
:1032D00010B10349C86B804710BD0000008000405A
:1032E000F801FF1F10B5FE4B53F830301B68FC4C43
:1032F00004EBC00464682343F94C54F83040236065
:103300000023F84C54F820402360F64B53F820304B
:103310005B6D43F00403F34C54F8204063650023D5
:10332000F04C54F820406360EE4C54F82040E364C5
:10333000EC4B53F8203099604FF0FF33E94C54F8D0
:103340002040C4F89830E74B53F820301B6823F036
:103350001803E44C54F820402360E24B53F820302B
:103360001B6843F00803DF4C54F820402360DD4B1A
:1033700053F820301B6823F00703DA4C54F8204040
:103380002360D84B53F820301B6802F00704234316
:10339000D44C54F82040236010BD014609B10129E6
:1033A00001D100207047022901D0032901D1012059
:1033B000F8E7042901D0052901D10220F2E7032012
:1033C000F0E72DE9F04104460E4615461F464FF042
:1033D0000008062D34D2DFE805F0030B131B232B66
:1033E0003046FFF7DAFFC100012000FA01F828E0BB
:1033F0003046FFF7D2FFC100022000FA01F820E0BA
:103400003046FFF7CAFFC100042000FA01F818E0B7
:103410003046FFF7C2FFC100102000FA01F810E0AB
:103420003046FFF7BAFFC100202000FA01F808E09B
:103430003046FFF7B2FFC100402000FA01F800E07B
:1034400000BF00BF012F0AD1A64850F82400406EEB
:1034500040EA0800A34951F82410486609E0A14851
:1034600050F82400406E20EA08009E4951F82410CC
:103470004866BDE8F08110B512B1012A3AD11CE0CE
:10348000984B53F820300C3353F8313023F00404B8
:10349000944B53F820300C3343F83140914B53F8A0
:1034A00020300C3353F8313043F008048D4B53F87F
:1034B00020300C3343F831401DE08A4B53F8203064
:1034C0000C3353F8313043F00404864B53F820306A
:1034D0000C3343F83140834B53F820300C3353F80E
:1034E000313023F008047F4B53F820300C3343F87D
:1034F000314000E000BF00BF10BD70B504460D466E
:103500001646062E7ED2DFE806F0035BF1FDA2EF41
:10351000744850F82400406D20F00100714951F8C2
:10352000241048656F4850F82400D0F8800020F03F
:1035300001006C4951F82410C1F88000694850F826
:103540002400006820F02000664951F8241008602B
:10355000644850F824000C3050F8350040F0300139
:10356000604850F824000C3040F8351000222946FD
:103570002046FFF780FF00231A4629462046FFF722
:1035800020FF0023012229462046FFF71AFF0023CF
:10359000022229462046FFF714FF00230322294672
:1035A0002046FFF70EFF0023042229462046FFF79E
:1035B00008FF0023052229462046FFF702FFD3E13A
:1035C000484850F82400406D20F00100454951F86A
:1035D00024104865434850F82400D0F8800020F0BB
:1035E0000100404951F82410C1F880003D4850F8CE
:1035F0002400006840F020003A4951F82410086087
:10360000002300E0AFE11A4629462046FFF7D9FE25
:103610000023012229462046FFF7D3FE0023022281
:1036200029462046FFF7CDFE0023032229462046E7
:10363000FFF7C7FE0023042229462046FFF7C1FEFC
:103640000023052229462046FFF7BBFE8CE12548D2
:1036500050F82400D0F8800020F00100214951F8F2
:103660002410C1F880001F4850F82400406D20F05D
:1036700001001C4951F8241048651A4850F82400EC
:10368000006820F02000174951F824100860154800
:1036900050F824000C3050F8350020F0300111486B
:1036A00050F824000C3040F8351000231A46294603
:1036B0002046FFF786FE0023012229462046FFF719
:1036C00080FE0023022229462046FFF77AFE0023CF
:1036D000032229462046FFF774FE0023042206E059
:1036E0003C77000024770000EEE00BE07BE0294609
:1036F0002046FFF766FE0023052229462046FFF7F5
:1037000060FE31E1F74850F82400D0F8800020F046
:103710000100F44951F82410C1F88000F14850F834
:103720002400006820F02000EE4951F824100860C1
:10373000EC4850F82400406D40F00400E94951F88D
:1037400024104865E74850F82400406D40F001001F
:10375000E44951F8241048650123002229462046F7
:10376000FFF72FFE01231A4629462046FFF729FEC0
:103770000023022229462046FFF723FE00230322CE
:1037800029462046FFF71DFE012304222946204634
:10379000FFF717FE0023052229462046FFF711FEFA
:1037A000D04850F824000C3050F8350040F030017B
:1037B000CC4850F824000C3040F83510002229463F
:1037C0002046FFF758FE0320C64951F824108865AB
:1037D000C44850F82400806D40F08000C14951F881
:1037E00024108865C0E0BF4850F82400D0F880005D
:1037F00020F00100BB4951F82410C1F88000B948FD
:1038000050F82400006820F02000B64951F8241038
:103810000860B44850F82400406D40F00400B149FD
:1038200051F824104865AF4850F82400406D40F02E
:103830000100AC4951F824104865012300222946B3
:103840002046FFF7BEFD0023012229462046FFF750
:10385000B8FD0023022229462046FFF7B2FD0023CF
:10386000032229462046FFF7ACFD01230422294606
:103870002046FFF7A6FD0023052229462046FFF734
:10388000A0FD984850F824000C3050F8350040F066
:103890003001944850F824000C3040F835100022D4
:1038A00029462046FFF7E7FD03208E4951F82410F2
:1038B00088658C4850F82400806D40F0800089496C
:1038C00051F8241088654FE0864850F82400D0F85D
:1038D000800040F00100834951F82410C1F88000B5
:1038E000804850F82400006820F020007D4951F8FD
:1038F000241008607B4850F82400406D40F004001C
:10390000784951F824104865764850F82400406DF5
:1039100040F00100734951F824104865012300224A
:1039200029462046FFF74DFD002301222946204667
:10393000FFF747FD0023022229462046FFF741FDFD
:103940000023032229462046FFF73BFD00230422E3
:1039500029462046FFF735FD00230522294620464B
:10396000FFF72FFD00E000BF00BF70BDF7B50E46AA
:1039700017466C46217801F0070000224FF6FF71D0
:10398000FFF7B0FC217801F0070005220021FFF7C6
:10399000B4FD16B1012E48D123E0207800F00700D5
:1039A000504951F82000D0F8800020F02000217804
:1039B00001F007014B4A52F82110C1F8800020782D
:1039C00000F00700114651F82000D0F8800020F0E8
:1039D0001000217801F0070152F82110C1F8800091
:1039E00024E0207800F007003E4951F82000D0F88C
:1039F000800040F02000217801F00701394A52F898
:103A00002110C1F88000207800F00700114651F81D
:103A10002000D0F8800040F01000217801F007016C
:103A200052F82110C1F8800000E000BF00BF17B1BC
:103A3000012F26D112E0207800F00700294951F823
:103A40002000D0F8800020F00800217801F0070164
:103A5000244A52F82110C1F8800013E0207800F0C9
:103A60000700204951F82000D0F8800040F00800FD
:103A7000217801F007011B4A52F82110C1F880009B
:103A800000E000BF00BF002523E02388C3F38212BB
:103A9000C3F344232B44D9B22378C3F3C20000F00C
:103AA0001FFB2288C2F344222A44D1B22278C2F3F7
:103AB000C200012200F039FB2288C2F344222A44CA
:103AC000D1B22278C2F3C200012200F07FFB681C51
:103AD000C5B22068C0F38430A842D6DC207800F05C
:103AE0000700FEBD24770000FE4B53F82030D3F8CA
:103AF0008030C3F380031370FA4B53F820305B68B7
:103B00009BB20B6070470021F64A52F820205160AA
:103B1000704770B51346F34C54F82040A4685C43DA
:103B200042F21075B4FBF5F2EE4C54F82040646E8E
:103B300004F001347CB30C4601EBD4756D10A1EB9D
:103B4000450585B10026E74C54F820400C344D1E45
:103B500004EBC5046660E34C54F820400C3404EBDD
:103B6000C10462600FE00025DE4C54F820400C34A4
:103B700004EBC1046560DB4C54F820400C344D1C50
:103B800004EBC50462604FF0FF34D64D55F8205069
:103B9000C5F8984007E0FFE7D24C54F820400C34B9
:103BA00004EBC104626070BD2DE9F74F82B0894615
:103BB0009046002702AC00250DE02388C3F3821253
:103BC000C3F344232B44D9B22378C3F3C20000F0DB
:103BD00087FA681CC5B22068C0F38430A842ECDCC8
:103BE0004FF6FF7B01A90220FEF75CFD0198B0FBB8
:103BF000F8F05946B0FBF1F60198B0FBF8F0B0FBD5
:103C0000F6F0B0F5803F00D3761C00251BE00120C4
:103C1000A840301A03D50120A840801B02E00120F3
:103C2000A840301A58450CD22F460120A840301A1F
:103C300003D50120A840801B02E00120A840301AD3
:103C40008346681CC5B2072DE1DB0120B840B042B5
:103C500001DA781CC7B2072F00DD07270120B84022
:103C60000199B1FBF0F0B0FBF8F0A0F1010A217866
:103C700001F007003A465146FFF734FBB9F1000F57
:103C800006D0B9F1010F0DD0B9F1020F1ED113E02A
:103C90002268C2F3C441227802F007000022FFF735
:103CA0002CFC14E02268C2F3C441227802F0070021
:103CB0000222FFF722FC0AE02268C2F3C441227804
:103CC00002F007000322FFF718FC00E000BF00BF6E
:103CD0002268C2F3C441227802F0070041F2883220
:103CE000FFF717FF207800F0070005B0BDE8F08F60
:103CF00073B50E466C4600250CE02388C3F3821290
:103D0000C3F344232B44D9B22378C3F3C20000F099
:103D1000E7F96D1C2068C0F38430A842EDD8217803
:103D200001F0070032464FF6FF71FFF7DBFA226819
:103D3000C2F3C441227802F007000422FFF7DDFB42
:103D40007CBD10B5674B53F820300C3353F831303D
:103D500023F00C04634B53F820300C3343F831400C
:103D600022B1012A1FD0022A49D139E05D4B53F814
:103D700020300C3353F8313023F00804594B53F8FA
:103D800020300C3343F83140564B53F820300C337D
:103D900053F8313043F00404524B53F820300C33C5
:103DA00043F831402CE04F4B53F820300C3353F89C
:103DB000313043F008044B4B53F820300C3343F8B8
:103DC0003140484B53F820300C3353F8313023F056
:103DD0000404444B53F820300C3343F831400FE0D7
:103DE000404B53F820300C3353F8313043F00C047F
:103DF0003C4B53F820300C3343F8314000E000BF17
:103E000000BF10BD0246374850F822000C3000EBCE
:103E1000C10040687047334A52F820205160704713
:103E200011B1314A42F82010704730B511297DD2C6
:103E3000DFE801F009202122232425262748494ACA
:103E40004B4C4D4E4F0052B1264B53F820301B685F
:103E500043F04003234C54F82040236009E0214BF9
:103E600053F820301B6823F040031E4C54F82040C8
:103E7000236084E000BF00BF00BF00BF00BF00BFE1
:103E800000BF7AB1174B53F820300C334C1E53F857
:103E9000343043F04005134B53F820300C3343F8D3
:103EA00034500EE00F4B53F820300C334C1E53F8B7
:103EB000343023F040050B4B53F820300C3343F8DB
:103EC00034505CE000BF00BF00BF00BF00BF00BFB8
:103ED00000BFC2B1034B53F820400C34A1F10903D9
:103EE00004E00000247700003802FF1F54F833304C
:103EF00043F04005764B53F820400C34A1F1090300
:103F000044F8335011E0724B53F820400C34A1F1C7
:103F1000090354F8333023F040056D4B53F820402B
:103F20000C34A1F1090344F8335000E026E092B1CB
:103F3000674B53F820400C34A1F1090354F8333097
:103F400043F00105624B53F820400C34A1F1090302
:103F500044F8335011E05E4B53F820400C34A1F18B
:103F6000090354F8333023F00105594B53F820402E
:103F70000C34A1F1090344F8335000E000BF00BF46
:103F8000544C235603F01F050124AC405D09AD00DD
:103F900005F1E025C5F8004100BF30BD10B54E4821
:103FA000006810B14C4908688047494800680068BB
:103FB00000F0C00038B146480068006820F080007A
:103FC000434909680860002415E0414800680C3046
:103FD00050F8340000F0C00060B13D4800680C307B
:103FE00050F8340020F08001394800680C3040F867
:103FF000341004E0641C39480068A042E5D800BFD2
:1040000010BD10B53448406810B133494868804746
:104010002F484068006800F0C00038B12C48406864
:10402000006840F080002A4949680860002415E0D3
:10403000274840680C3050F8340000F0C00060B1F0
:10404000234840680C3050F8340020F080012048AC
:1040500040680C3040F8341004E0641C1F4840688D
:10406000A042E5D800BF10BD10B51B48806810B154
:1040700019498868804716488068006800F0C000C9
:1040800038B113488068006820F0800010498968C2
:104090000860002415E00E4880680C3050F83400A9
:1040A00000F0C00060B10A4880680C3050F834005D
:1040B00020F08001064880680C3040F8341004E09D
:1040C000641C06488068A042E5D800BF10BD00000F
:1040D00024770000547700003802FF1F307700007B
:1040E00010B5FC4B9B6BFC4C54F820402343F94C1F
:1040F000A363FA4B53F8203053F8213023F4E063E4
:10410000F64C54F8204044F82130F44B53F820305A
:1041100053F821304FF4E06404EA02242343EF4CC7
:1041200054F8204044F8213010BD10B5E94B9B6B8A
:10413000E94C54F820402343E64CA36322B1012A02
:104140000FD0022A3FD125E0E44B53F8203053F83A
:10415000213023F00203E14C54F8204044F8213090
:1041600032E0DE4B53F8203053F8213043F00203A5
:10417000DA4C54F8204044F82130D84B53F8203022
:1041800053F8213043F00103D44C54F8204044F854
:10419000213019E0D14B53F8203053F8213043F04F
:1041A0000203CE4C54F8204044F82130CB4B53F856
:1041B000203053F8213023F00103C84C54F820403C
:1041C00044F8213000E000BF00BF10BD10B5C14B66
:1041D0009B6BC14C54F820402343BE4CA363012A7F
:1041E0000CD1BE4B53F8203053F8213043F020035C
:1041F000BA4C54F8204044F821300BE0B74B53F848
:10420000203053F8213023F02003B44C54F82040E0
:1042100044F8213010BD10B5AE4B9B6BAE4C54F83A
:1042200020402343AB4CA363012A0CD1AB4B53F882
:10423000203053F8213043F01003A84C54F82040AC
:1042400044F821300BE0A54B53F8203053F82130CF
:1042500023F01003A14C54F8204044F8213010BD45
:1042600010B59C4B9B6B9C4C54F820402343994CBD
:10427000A363012A0BD19A4B53F820305B690124C8
:104280008C402343964C54F8204063610AE0944BE1
:1042900053F820305B6901248C40A343904C54F8C0
:1042A0002040636110BD10B50446E078052854D263
:1042B000DFE800F003132333430021792078002244
:1042C000FFF733FF217920780022FFF77FFF217964
:1042D00020780022FFF7C4FF40E0217920780222F5
:1042E000FFF723FF217920780022FFF76FFF217964
:1042F00020780022FFF7B4FF30E0217920780122F6
:10430000FFF713FF217920780022FFF75FFF217963
:1043100020780022FFF7A4FF20E0217920780122F5
:10432000FFF703FF217920780122FFF74FFF217962
:1043300020780122FFF794FF10E0217920780022F5
:10434000FFF7F3FE217920780022FFF73FFF217964
:1043500020780122FFF784FF00E000BF00BF217931
:1043600020780122FFF7BCFE10BD7CB504460D4647
:104370001646E0B28DF800008DF80360019568469E
:10438000FFF791FFE0B27CBD10B5524B9B6B524CD6
:1043900054F8204023434F4CA3635AB1504B53F879
:1043A00020305B6801248C4023434D4C54F820405E
:1043B00063600AE04A4B53F820309B6801248C402C
:1043C0002343474C54F82040A36010BD444A52F8A0
:1043D0002020526801238B401A43414B53F8203070
:1043E0005A6070473E4A52F82020926801238B4061
:1043F0001A433B4B53F820309A60704702463848C6
:1044000050F822004069C84000F0010038B134483B
:1044100050F822000068C84000F0010070473048A2
:1044200050F822000069C84000F00100F6E72C4A6D
:1044300052F82020D26801238B401A43284B53F8AE
:104440002030DA6070470146254850F821000069A5
:104450007047234A52F82020116070472DE9F0413F
:1044600004460D4616461F461A48806B1A4951F8F5
:104470002410084317498863184850F8240050F85E
:10448000250020F47020154951F8241041F825002A
:1044900067B91449085700F01F0201219140124AE0
:1044A000430942F8231000BFBDE8F081092E77D2FE
:1044B000DFE806F01C293605435465778800074875
:1044C00050F8240050F82500044951F8241041F810
:1044D000250089E000800440807700006C770000B0
:1044E000587700009477000080E100E0684850F8B9
:1044F000240050F8250040F48030654951F824101C
:1045000041F8250070E0624850F8240050F825007A
:1045100040F400305E4951F8241041F8250063E072
:104520005B4850F8240050F8250040F440305849CA
:1045300051F8241041F8250056E0554850F8240061
:1045400050F8250040F40020514951F8241041F85A
:1045500025005049085700F090F845E04C4850F8C5
:10456000240050F8250040F41020494951F8241047
:1045700041F825004749085700F07FF834E04448E7
:1045800050F8240050F8250040F42020404951F80C
:10459000241041F825003F49085700F06EF823E049
:1045A00021E03B4850F8240050F8250040F430202A
:1045B000374951F8241041F825003649085700F0D2
:1045C0005CF811E0324850F8240050F8250040F41F
:1045D00040202F4951F8241041F825002D49085753
:1045E00000F04BF800E000BF00BF00BF5CE72A4AC4
:1045F000926B2A4B53F820301A43274B9A6311B120
:10460000274A42F82010704710B521480068D0F8BA
:10461000A0404FF0FF301E490968C1F8A0002048B3
:10462000006818B11E4801682046884710BD10B5C3
:1046300017484068D0F8A0404FF0FF30144949684F
:10464000C1F8A0001648406818B1154841682046D6
:10465000884710BD10B50E488068D0F8A0404FF0D4
:10466000FF300B498968C1F8A0000D48806818B177
:104670000B4881682046884710BD00F01F020121C9
:1046800091404209920002F1E022C2F80011704705
:104690006C77000094770000008004408077000071
:1046A0004402FF1F0146FB4850F82100007CC0F384
:1046B0000210F94A52F82000704730B503460C4604
:1046C000F44850F82300007C00F0800050B100BF97
:1046D0001846FFF7E7FFEF4951F82310097D88429C
:1046E000F6D908E000BFEB4850F82300007900F04D
:1046F00080000028F7D0E74951F82310CC71C4F3AB
:10470000002555B1E34850F82300807940F040007F
:10471000E04951F82310887109E0DE4850F8230081
:10472000807920F04000DB4951F82310887130BDBA
:1047300030B504460D46A1B2D8480078FFF7BDFF5A
:10474000204630BD10B502460023D24850F8220062
:10475000007900F0200078B1CE4850F8220080792E
:10476000C309180208800888CA4C54F82240E4792A
:1047700020430880002010BD0120FCE718B5044646
:1047800000BF6946C5480078FFF7DCFF0028F8D174
:10479000BDF80000C0B218BD30B50379C04C54F864
:1047A00033301B680479BE4D05EBC40464682343B1
:1047B000047955F8344023600379B64C54F823301B
:1047C000DB7823F00C030479B24D55F82440E370F4
:1047D000846824010368B3FBF4F399B203685B01B6
:1047E00084682401B3FBF4F3202404FB1133DAB210
:1047F00003792C4654F823301B78C1F30424234357
:10480000047955F824402370047955F824406170E8
:1048100003792C4654F823309B7A02F01F0423437B
:10482000047955F82440A372037B23B1022B1AD0DC
:10483000032B48D12FE00379964C54F823309B7812
:1048400023F002030479934D55F82440A3700379B3
:104850002C4654F823309B7823F01003047955F844
:104860002440A37030E003798A4C54F823309B78BD
:1048700043F002030479874D55F82440A37003796F
:104880002C4654F823309B7823F00103047955F823
:104890002440A37018E003797E4C54F823309B78B1
:1048A00043F0020304797B4D55F82440A37003794B
:1048B0002C4654F823309B7843F00103047955F8D3
:1048C0002440A37000E000BF00BF437B13B1012B65
:1048D0006ED136E003796F4C54F823309B7803F0A7
:1048E0000203B3B1037954F823309B7843F01003EB
:1048F0000479684D55F82440A37003792C4654F888
:1049000023309B7A23F02003047955F82440A372C6
:1049100016E003795F4C54F823309B7823F01003A2
:1049200004795C4D55F82440A37003792C4654F863
:1049300023309B7A23F02003047955F82440A37296
:1049400037E00379534C54F823309B7803F002038B
:10495000B3B1037954F823309B7843F01003047902
:104960004C4D55F82440A37003792C4654F823305D
:104970009B7A43F02003047955F82440A37216E093
:104980000379444C54F823309B7843F010030479A6
:10499000404D55F82440A37003792C4654F8233039
:1049A0009B7A23F02003047955F82440A37200E099
:1049B00000BF00BF0379374C54F823305B7923F0F4
:1049C00020030479334D55F82440637103792C4654
:1049D00054F82330DB7843F00C03047955F8244075
:1049E000E370304B1B7813B103792C4C23700023F8
:1049F0002C4C237030BD00BF264951F82010097996
:104A000001F080010029F7D0224951F82010C9781F
:104A100021F00C011F4A52F82020D170204951F892
:104A2000301009681E4A02EBC002526811431C4A4A
:104A300052F8302011607047194951F83010096858
:104A4000174A02EBC0025268114009B1134A1070B4
:104A5000704700BF0F4A52F82020127902F08002FE
:104A6000002AF7D051B10B4A52F82020127C42F0B4
:104A70008002084B53F820301A7409E0054A52F8B6
:104A80002020127C22F08002024B53F820301A744E
:104A9000704700009C770000EC7700008001FF1F4A
:104AA000B4770000A401FF1F51B1FE4A52F8202044
:104AB000127C42F00802FB4B53F820301A7409E0D4
:104AC000F84A52F82020127C22F00802F54B53F8E5
:104AD00020301A7470470146F24850F82100007CDB
:104AE00000F00700F04A52F820007047ED4A52F8F3
:104AF0002020D27822F00802EA4B53F82030DA70F6
:104B0000E84B53F82030D974E64A52F82020D27886
:104B100042F00802E34B53F82030DA707047E14A64
:104B200052F82020D27822F00402DE4B53F82030D5
:104B3000DA70DC4B53F820305975DA4A52F82020ED
:104B4000D27842F00402D74B53F82030DA70704725
:104B500070B504460E461546D44850F83400006837
:104B6000D24901EBC40149680843D04951F83410D7
:104B7000086036B1012E3AD0022E1DD0032E6FD11F
:104B800062E055B1C74850F82400C07840F080007A
:104B9000C44951F82410C87009E0C24850F82400F4
:104BA000C07820F08000BF4951F82410C870C04977
:104BB000085700F07FFA76E055B1BA4850F8240063
:104BC000C07840F02000B74951F82410C87009E0BF
:104BD000B44850F82400C07820F02000B14951F8C2
:104BE0002410C870B249085700F064FA5BE055B170
:104BF000AC4850F82400C07840F08000A94951F832
:104C00002410C87009E0A74850F82400C07820F0AC
:104C10008000A44951F82410C87055B1A14850F83B
:104C20002400C07A40F080009E4951F82410C872D8
:104C300009E09C4850F82400C07A20F0800099498F
:104C400051F82410C8722EE05DB1964850F8240047
:104C5000C07840F02000934951F82410C8700AE051
:104C600020E0904850F82400C07820F020008D49C2
:104C700051F82410C87055B18A4850F82400C07A01
:104C800040F02000874951F82410C87209E0854897
:104C900050F82400C07A20F02000824951F82410F6
:104CA000C87200E000BF00BF70BD804A52F83020DB
:104CB00012687E4B03EBC0035B681A437B4B53F8CF
:104CC00030301A6011B17B4A42F820107047774AA1
:104CD00052F830201268754B03EBC0035B681A432F
:104CE000724B53F830301A6011B1734A42F82010F9
:104CF000704773B586B00E4606AC0396207800F078
:104D000007008DF8080000208DF810008DF81100C4
:104D100005A90220FDF7C6FC207800F0070020B1AD
:104D2000207800F00700012803D105A90020FDF735
:104D3000B9FC0598019000250DE02388C3F3821289
:104D4000C3F344232B44D9B22378C3F3C200FFF743
:104D5000C7F9681CC5B22068C0F38430A842ECDCF7
:104D600001A8FFF719FD217801F007000021FFF7E6
:104D700070FE217801F007000021FFF795FE2078F2
:104D800000F0070008B070BD08B54648006800791B
:104D900000F0800088B143480068C07800F08000CF
:104DA00058B14448006818B14248016868468847CD
:104DB000BDF800003B490968C8713A4800680079AD
:104DC00000F0200088B137480068C07800F020006B
:104DD00058B134480068C07900903748006820B165
:104DE00035480168BDF80000884708BD08B52D4862
:104DF0004068007900F0800088B12A484068C07897
:104E000000F0800058B12B48406818B1294841682B
:104E100068468847BDF8000022494968C8712148A2
:104E20004068007900F0200088B11E484068C078D2
:104E300000F0200058B11B484068C07900901E481F
:104E4000406820B11C484168BDF80000884708BD93
:104E500008B514488068007900F0800088B11148D6
:104E60008068C07800F0800058B11248806818B19E
:104E70001048816868468847BDF80000094989687C
:104E8000C87108488068007900F02000F0B105483A
:104E90008068C07800F02000C0B102488068C07906
:104EA00000900BE09C770000EC770000B4770000E6
:104EB000E47700005802FF1F7002FF1F83488068DC
:104EC00020B182488168BDF80000884708BD08B558
:104ED0007F48C068007900F0800088B17C48C068D5
:104EE000C07800F0800058B17A48C06818B179489D
:104EF000C16868468847BDF800007549C968C8712F
:104F00007348C068007900F0200088B17048C0681C
:104F1000C07800F0200058B16D48C068C07900909A
:104F20006A48C06820B16948C168BDF80000884778
:104F300008BD08B566480069007900F0800088B1B6
:104F400063480069C07800F0800058B1614800698A
:104F500018B16048016968468847BDF800005C499F
:104F60000969C8715A480069007900F0200088B1C9
:104F700057480069C07800F0200058B154480069D3
:104F8000C07900905148006920B150480169BDF8CE
:104F90000000884708BD08B54D484069007900F019
:104FA000800088B14A484069C07800F0800058B15C
:104FB0004848406918B14748416968468847BDF884
:104FC000000043494969C87141484069007900F0CF
:104FD000200088B13E484069C07800F0200058B1F8
:104FE0003B484069C07900903848406920B1374853
:104FF0004169BDF80000884708BD70B58CB0044613
:105000000D466DB3FDF79FFFC6B28DF800603248C4
:1050100010F824008DF8010000208DF80600012012
:10502000ADF802000020ADF80400039005900120C7
:10503000029000208DF810008DF81800274850F8D5
:105040002400089000200A9007908DF824008DF825
:105050002C006846FDF7B3FE214840F8246004E0C8
:105060001F4951F82400FDF785FF2A4601212046FB
:10507000FFF76EFD0CB070BD70B504460E461546C8
:10508000174911F824003146FEF757F8144911F872
:1050900024002946FDF77EFF114911F82400FDF791
:1050A0008FFF70BD10B504460D4911F82400FDF7BF
:1050B00069FF10BD00F01F020121914042099200DA
:1050C00002F1E022C2F80011704700007002FF1FD9
:1050D0009C7700005802FF1F087800008C01FF1F1A
:1050E0008802FF1F2DE9FF4F82B004468C46DDF891
:1050F00010B0FA4850F82400006800F0004018B9D9
:10510000002006B0BDE8F08F4FF0FF324FF00008EE
:105110004FF000090120019000200090002126E0BE
:1051200000231FE0012518E0ED4850F82100DFF8CA
:10513000B4E35EF823E000FB0EFE05986843B0FB85
:10514000FEF6B34508D3ABEB060A524504D95246E6
:1051500088469946009601956D1C032D01D2002AC0
:10516000E2D15B1C102B01D2002ADBD1491C04299F
:1051700001D2002AD4D1D94850F824000C3050F87C
:105180002C70D94807400198401E58B14FF4403068
:1051900000EA084040F0004009F00F0E40EA0E001F
:1051A000074308E04FF4403000EA084009F00F0ED2
:1051B00040EA0E000743C94850F824000C3040F87C
:1051C0002C7000989DE72DE9F84305460C461646DD
:1051D0001F46DDE90889C14850F825000C3050F819
:1051E000240020F0F041BD4850F825000C3040F874
:1051F0002410BA4850F825000C3050F82400791ECD
:105200004FF0F04202EAC1610843B44951F8251059
:105210000C3141F82400B8F1000F03D0B8F1010FB0
:105220001ED10EE0AD4850F825000C3050F8240097
:1052300020F08071A94850F825000C3040F8241067
:105240000FE0A64850F825000C3050F8240040F03C
:105250008071A24850F825000C3040F8241000E07E
:1052600000BF00BF36B1012E21D0022E3CD0032E4C
:1052700075D156E0994850F825000C3050F82400BC
:1052800020F08061954850F825000C3040F824103B
:10529000924850F825000C3050F8240020F000719E
:1052A0008E4850F825000C3040F8241058E08B4808
:1052B00050F825000C3050F8240020F08061874819
:1052C00050F825000C3040F82410844850F8250090
:1052D0000C3050F8240040F00071804850F8250050
:1052E0000C3040F824103BE07C4850F825000C308E
:1052F00050F8240040F08061784850F825000C30C8
:1053000040F82410754850F825000C3050F824005F
:1053100020F00071714850F825000C3040F824103E
:105320001EE06E4850F825000C3050F8240040F084
:1053300080616A4850F825000C3040F82410674816
:1053400050F825000C3050F8240040F000716348FC
:1053500050F825000C3040F8241001E0FFE700BFB2
:1053600000BF69460220FDF79DF9E1B24A46284692
:10537000009BFFF7B7FE594850F825000C3050F855
:1053800024005A490843554951F825100C3141F879
:105390002400BDE8F8837CB504465549206851F8DF
:1053A00030000068524A216802EBC1014968084395
:1053B000216852F8311008604849206851F82000EF
:1053C000006840F00100454A216852F82110086049
:1053D000207910B101281AD10CE04049206851F819
:1053E0002000006840F000403C4A216852F821103B
:1053F00008600DE03949206851F82000006820F06D
:105400000040364A216852F82110086000E000BFD1
:1054100000BF3249206851F82000006820F4804025
:105420002E4A216852F8211008601146206851F870
:10543000200000682F490843216852F821100860B5
:10544000A179A068CDE900106379E279E16820686C
:10545000FFF7B9FE4FF0FF30204A216852F82110C3
:10546000C8621146206851F82000006820F0010051
:10547000216852F8211008607CBDF7B584B00E4653
:10548000174604AC02978DF8076008208DF80500D8
:10549000207800F00700009000208DF804008DF8BF
:1054A0000600039000250CE02388C3F38212C3F3A7
:1054B00044232B44D9B22378C3F3C200FEF710FE75
:1054C0006D1C2068C0F38430A842EDD86846FFF711
:1054D00062FF207800F0070007B0F0BD20780000E0
:1054E0004878000058780000F0FFFC7F0011500061
:1054F0002C780000013C1F009C4A52F820201268C2
:1055000022F48042994B53F820301A6051B1974AE7
:1055100052F82020126822F40052944B53F82030A5
:105520001A6009E0914A52F82020126842F40052B1
:105530008E4B53F820301A6070478C4A52F8202066
:10554000126822F48042894B53F820301A6051B11E
:10555000864A52F82020126822F48052834B53F876
:1055600020301A6009E0814A52F82020126842F483
:1055700080527E4B53F820301A60704730B50B468E
:1055800023B1012B26D0022B7FD150E052B17749B5
:1055900051F82010096B41F00041744C54F8204040
:1055A000216309E0714951F82010096B21F0004195
:1055B0006E4C54F8204021636D4C215601F01F05BC
:1055C0000124AC404D09AD0005F1E025C5F80041CE
:1055D00000BF5BE052B1654951F82010096B41F002
:1055E0000071624C54F82040216309E05F4951F892
:1055F0002010096B21F000715C4C54F820402163AD
:1056000052B15A4951F82010096B41F08071574C42
:1056100054F82040216309E0544951F82010096BE7
:1056200021F08071514C54F8204021632EE052B19A
:105630004E4951F82010096B41F400314B4C54F89D
:105640002040216309E0494951F82010096B21F4F9
:105650000031464C54F8204021635AB1434951F877
:105660002010096B41F48031404C54F820402163F4
:105670000AE00AE03D4951F82010096B21F480311D
:105680003A4C54F82040216300E000BF00BF30BD19
:1056900011B1384A42F820107047F0B50446059D14
:1056A0004FF0004606EAC5764FF0E04707EA01777B
:1056B0003E4301279F404FF47C1C0CEA07473E43C2
:1056C00097B23E43294F57F824707E63274E56F811
:1056D0002460366B06F0004696B900BF234E56F89C
:1056E0002460F66A06F00046002EF7D01F4E56F8EA
:1056F0002460F66A46F000461C4F57F82470FE629C
:105700001A4E56F82460B66BB0B2F0BD10B517480B
:105710000068C06A40F0004014490968C862154832
:10572000006810B113490868804710BD10B50F48D4
:105730004068C06A40F000400C494968C8620D48A2
:10574000406810B10B494868804710BD10B5074844
:105750008068C06A40F0004004498968C862054812
:10576000806810B103498868804710BD2078000028
:10577000447800009C02FF1F72B64CF2205053493F
:10578000C8814DF62810C88162B67047F8B5044646
:1057900069460220FCF786FF40F2D316207810B14C
:1057A000012806D102E026F0080603E046F00806CC
:1057B00000E000BF00BFFFF7DFFF0098C0084FF414
:1057C0007A71B0FBF1F0616800FB01F5280C3F49EC
:1057D0008880CD800098C0084FF47A71B0FBF1F05A
:1057E000A16800FB01F5280C384908814D814FF470
:1057F000E060C88246F001060E80F8BD3EB5044662
:1058000000208DF800000194600802906846FFF7C0
:10581000BDFF3EBD10B50446FFF7AEFF012C06D11B
:105820002A48008840F004002849088005E02748FD
:10583000008820F0040025490880012C0AD1162098
:10584000012181404209920002F1E022C2F80011D8
:1058500000BF08E01620012181401D4A430942F89B
:10586000231000BF00BF10BD08B11A49086070477F
:105870001648808A70474FF6FF7014498882704737
:105880001249098A08041149498A0843704772B6C7
:105890004AF202610D4A91814BF28041918162B6D8
:1058A000002001E000BF401C1428FBD3704710B556
:1058B0000648408840F40040044948800548006894
:1058C00010B104490868804710BD00000020054061
:1058D00080E100E0A801FF1F10B504465E48C06BE0
:1058E00040F400005C49C8635C490220FCF7DAFE22
:1058F0005A4800685A49B0FBF1F05849086060689E
:10590000096848435749227801EB0211086055485D
:10591000217800EB0110806840F0010151482278A5
:1059200000EB021081605048006820F002004E49F0
:10593000086010BD7CB505460C468DF800500194FA
:105940006846FFF7C9FF7CBD30B50B464249C96BBD
:1059500041F40001404CE1636AB1444C215601F02E
:105960001F050124AC404D09AD0005F1E025C5F847
:10597000004100BF00BF52B13A4901EB00118968F4
:1059800041F00204374901EB00118C6009E0354910
:1059900001EB0011896821F00204324901EB00118A
:1059A0008C604AB92F4901EB0011C96841F001042C
:1059B0002C4901EB0011CC6030BD2A4901EB0011EC
:1059C000896821F00102274901EB00118A6025490D
:1059D00001EB0011896841F00102224901EB00113D
:1059E0008A60704701461F4800EB0110406870470D
:1059F000194AD26B42F40002174BDA6311B11C4A08
:105A000042F82010704710B50446164800EB041009
:105A1000C06840F00101134800EB0410C160144855
:105A200050F8240018B1124951F82400804710BDE5
:105A300010B50020FFF7E7FF10BD10B50120FFF7FC
:105A4000E2FF10BD10B50220FFF7DDFF10BD10B55D
:105A50000320FFF7D8FF10BD00800440AC01FF1FFA
:105A600040420F000071034000700340987800002E
:105A7000A802FF1F10B5204A20490120FEF734F884
:105A80000120FEF740F81E4A1E490220FEF72CF8BE
:105A90000220FEF738F8194800684EF66021884267
:105AA00005D916480068A0F58030144908601548EB
:105AB00000684EF66021884205D912480068A0F5BA
:105AC0008030104908600D48008800B20E490880F7
:105AD0000C480088404200B20C4908800A49B1F9DC
:105AE00000100A4AB2F90020881800EBD071491062
:105AF00009B2074A118010BDB601FF1FB801FF1F90
:105B0000B701FF1FBC01FF1FB001FF1FB201FF1F44
:105B1000B401FF1FF8B50446002209210420FEF756
:105B200033FC012000232C22194600900220FFF7AD
:105B3000B4FD012209210420FEF726FC002517E010
:105B4000002611E0002022120346014600900220A8
:105B5000FFF7A3FD002003462246014600900220E5
:105B6000FFF79BFD701CC6B2802EEBDB681CC5B234
:105B7000802DE5DBF8BD08B5042214210120FEF7D5
:105B8000F4FB042208211046FEF7EFFB0422092152
:105B90001046FEF7EAFBFE4A00214EF68A20FFF788
:105BA0006CFC01210220FFF7A7FC00220821042041
:105BB000FEF7EAFB6420FCF7F4FD01220821042033
:105BC000FEF7E2FB6420FCF7ECFD00220921042033
:105BD000FEF7DAFB00200346112201460090022066
:105BE000FFF75BFD1420FCF7DCFD002003462622B6
:105BF000014600900220FFF750FD012209210420F8
:105C0000FEF7C2FB0020034604220146009002205A
:105C1000FFF743FD002209210420FEF7B5FB002019
:105C20000346B122014600900220FFF736FD012213
:105C300009210420FEF7A8FB002003460E2201469E
:105C400000900220FFF729FD0020034610220146A4
:105C500000900220FFF721FD002209210420FEF719
:105C600093FB00200346C022014600900220FFF76C
:105C700014FD012209210420FEF786FB00200346C3
:105C80000822014600900220FFF707FD002003468E
:105C90000246014600900220FFF7FFFC0022092186
:105CA0000420FEF771FB00200346C122014600904C
:105CB0000220FFF7F2FC012209210420FEF764FB19
:105CC000002003460522014600900220FFF7E5FC74
:105CD000002209210420FEF757FB00200346C522BD
:105CE000014600900220FFF7D8FC01220921042080
