:020000040000FA
:100000003838FF1F4D060000CF1D000057060000C6
:10001000590600005B0600005D06000000000000BD
:100020000000000000000000000000005F0600006B
:100030006106000000000000630600006506000085
:1000400073270000892700009F270000D1270000A8
:10005000E7270000FD2700001328000029280000E2
:100060003F280000552800006B2800008128000070
:1000700097280000AD280000C3280000D928000000
:1000800067060000670600006706000067060000BC
:1000900067060000670600004F5100006706000079
:1000A0006706000067060000AD4F0000CD4F00005E
:1000B000ED4F0000670600006706000067060000BD
:1000C000670600006706000067060000670600007C
:1000D000670600006706000067060000670600006C
:1000E000670600006706000067060000670600005C
:1000F0006706000029460000670600008D460000E4
:1001000067060000F1460000670600006F47000028
:1001100067060000D347000067060000374800006C
:1001200067060000CB1B0000DB1B00006706000019
:100130006706000067060000B135000017360000B2
:100140007D360000670600006706000067060000B5
:10015000D1520000DB520000E5520000EF520000D7
:1001600067060000670600006706000067060000DB
:1001700067060000670600006706000067060000CB
:1001800067060000DF22000045230000670600002C
:100190006706000067060000670600001D3C0000BF
:1001A000433C0000693C0000375D0000CF5C00006C
:1001B000670600006706000067060000670600008B
:1001C000670600006706000067060000670600007B
:1001D000670600006706000067060000670600006B
:1001E000670600006706000067060000670600005B
:10040000FFFFFFFFFFFFFFFFFFFFFFFFFEFFFFFFFD
:10041000DFF80CD007F0C2FA004800477106000070
:100420003838FF1F4CF220508049C8814DF6281003
:10043000C8814FF4E97008804FF0FF307C49486470
:1004400000207C4908707A48406820F00100784913
:1004500048602420784948709A2008700846C0787F
:1004600000F01F00C870032008710020487100BF11
:100470007148807900F002000028F9D000BF6E4872
:10048000807900F010000028F9D100BF6A48807917
:1004900000F00C000828F9D10C20674908715C2095
:1004A000487166486249486400BF6348807900F03B
:1004B00020000028F9D000BF5F48807900F040009C
:1004C0000028F9D01A205C49087000BF5A4880798A
:1004D00000F00C000C28F9D100BF5748807900F0DB
:1004E00040000028F9D07047534A127802F0C00249
:1004F000002A67D1504A527902F04002002A51D1B5
:100500004D4A127802F00402C2B94B4A127B02F043
:1005100001020AB94A4801E04FF40040464A127805
:10052000C2F3C20301229A40D1B2B0FBF1F0424AB9
:10053000527802F030021AB1400901E04FF4004055
:100540003D4AD27802F0E00202F01F0343BB521191
:10055000082A25D2DFE802F004080C1014181C2029
:1005600000EB8002D0011CE000EB8002100218E0DA
:10057000C0EB0012D00114E000EB8002500210E04A
:100580004FF4377250430CE04FF4B762504308E029
:1005900040F69502504304E040F67132504300E0CB
:1005A00000BF38E0244A127902F01F02511C244A8D
:1005B000B2FBF1F0204A527902F01F0202F1180159
:1005C000484328E01C4A127802F0C002402A11D1A8
:1005D000194A527802F0010212B94FF400401AE0B1
:1005E000154A127AC2F3420301229A40154BB3FB1B
:1005F000F2F010E0104A127802F0C002802A09D10D
:100600000D4A127B02F001020AB90D4803E04FF4D3
:10061000004000E07047064A526C012303EB12725F
:10062000B0FBF2F2084B1A6000BFF3E70020054070
:1006300000800440005006400040064000001701C2
:1006400080F0FA0200093D000000FF1F06488047C5
:1006500006480047FEE7FEE7FEE7FEE7FEE7FEE7A7
:10066000FEE7FEE7FEE7FEE72504000011040000B8
:1006700001203349087000F0DBFB00F0B1FD00F011
:10068000FFFC5CE000F06CF80F21002003F0D9F9CA
:1006900000F09DFE05F08CFC00202A4908702A49D4
:1006A00008702A48007818B900202949087026E007
:1006B00028480078012803D10320254908701EE04E
:1006C00025480078012803D104202149087016E04C
:1006D0001C480078012803D01B48007801280BD162
:1006E0001E480078012803D102201949087006E04D
:1006F00001201749087002E00220154908701448CB
:10070000007805280FD2DFE800F0030405080B008D
:100710000AE009E006F06BF806E006F000FA03E0F4
:1007200006F07AFA00E000BF00BF05F0C7FE06F051
:100730009FFC00F06CFE06F0F4FC00F0D6FCA1E794
:100740008614FF1F4813FF1F8C14FF1F8714FF1F01
:100750009414FF1F9314FF1F9214FF1F9114FF1F87
:1007600010B5C74AC749012002F0C8FC012002F0B9
:10077000D4FCC54AC549022002F0C0FC022002F0A8
:10078000CCFCC04800684EF66021884205D9BD48BF
:100790000068A0F58030BB490860BC4800684EF690
:1007A0006021884205D9B9480068A0F58030B74972
:1007B0000860B4480068B6490860B4480068404220
:1007C000B449086010BD70B504464FF47A706043B8
:1007D00085B20F2C7CD2DFE804F07B081F364D6415
:1007E0007C93AAC1D8F3F1F0EF004FF4FA52002144
:1007F000084602F098FC00220121104602F093FC0A
:100800004FF4FA520221002002F08DFC0022032155
:10081000104602F088FC30E140F6B832002108466C
:1008200002F081FC00220121104602F07CFC40F61F
:10083000B8320221002002F076FC0022032110468B
:1008400002F071FC19E141F288320021084602F001
:100850006AFC00220121104602F065FC40F6B83225
:100860000221002002F05FFC00220321104602F06A
:100870005AFC02E140F6B8320021084602F053FC6F
:1008800000220121104602F04EFC41F28832022182
:10089000002002F048FC00220321104602F043FC35
:1008A000EBE040F6B8320021084602F03CFC0022A2
:1008B0000121104602F037FC40F6B8320221002038
:1008C00002F031FC00220321104602F02CFCD4E09F
:1008D000D2E000221146104602F025FC41F270726F
:1008E0000121002002F01FFC00220221104602F02C
:1008F0001AFC41F270720321002002F014FCBCE0EB
:1009000000221146104602F00EFC42F25442012130
:10091000002002F008FC00220221104602F003FC35
:1009200042F254420321002002F0FDFBA5E0002228
:100930001146104602F0F7FB42F228320121002056
:1009400002F0F1FB00220221104602F0ECFB42F221
:1009500028320321002002F0E6FB8EE0002211463F
:10096000104602F0E0FB42F254420121002002F066
:10097000DAFB00220221104602F0D5FB42F254427B
:100980000321002002F0CFFB77E04FF47A620021D0
:10099000084602F0C8FB00220121104602F0C3FB0A
:1009A00041F270720221002002F0BDFB00220321FF
:1009B000104602F0B8FB60E047E02FE017E0FFE7E9
:1009C00041F270720021084602F0ADFB00220121C5
:1009D000104602F0A8FB4FF47A620221002002F0D8
:1009E000A2FB00220321104602F09DFB45E041F2EC
:1009F00070720021084602F096FB00220121104689
:100A000002F091FB41F270720221002002F08BFB98
:100A100000220321104602F086FB2EE04FF47A728A
:100A20000021084602F07FFB00220121104602F05F
:100A30007AFB4FF47A720221002002F074FB00224C
:100A40000321104602F06FFB17E041F64C520021E3
:100A5000084602F068FB00220121104602F063FB09
:100A600041F64C520221002002F05DFB00220321DE
:100A7000104602F058FB00E000BF00BF70BD000050
:100A80000C00FF1F1000FF1F0D00FF1F1400FF1FB1
:100A90000400FF1F0800FF1F70B52B48007848BBFB
:100AA000002420E0002519E004EB8400274901EB35
:100AB0008010405DFF2806D1FE2004EB8401234A0C
:100AC00002EB8111485504EB8400204A02EB8010B0
:100AD000415D002003F041FA681C85B2B5F5A07FA6
:100AE000E2DB601C84B2642CDCDBFF21002003F01D
:100AF00034FA28E0002420E0002519E004EB84000B
:100B0000134901EB8010405DFF2806D1FE2004EB65
:100B100084010F4A02EB8111485504EB84000C4A12
:100B200002EB8010415D002003F017FA681C85B2CB
:100B3000B5F5A07FE2DB601C84B2642CDCDBFF2116
:100B4000002003F00AFA70BD8614FF1F0000002089
:100B5000007D002010B505F039F904460CB10120E4
:100B600010BD002005F074F9044624B198A006F0E9
:100B700063FF0120F4E70020F2E710B5044604F417
:100B8000003028B399480078042817D103209749EA
:100B900008704FF4803096490860022001F01AFD79
:100BA0004FF480309249A039C1F8A0009149022049
:100BB00001F0C2FD572000F002F909E08B480078EF
:100BC000012805D0572000F0FAF802208749087064
:100BD00010BD10B5012085490870022001F0F4FB1A
:100BE0008548406A40F004008349486210BD10B552
:100BF0008CB0002407E004F108010022022002F07A
:100C0000BEFE601CC4B2082CF5DB7C48006820F4F2
:100C10007F407A499439C1F894000222102110468D
:100C200002F0ADFE01221121002002F0A8FEAFF279
:100C3000B501002002F0E5FF01230522112100206B
:100C400002F016FF01231A461021022002F010FFC5
:100C5000012066490870572000F0B1F8302168463D
:100C600006F0DBFA02208DF8000033208DF8010039
:100C700000208DF806000120ADF802004FF4167038
:100C8000ADF804005D48C01E03900020059002905E
:100C90008DF810008DF81800594800680890002061
:100CA0000A900120079000208DF824008DF82C0078
:100CB000684601F08EFB01221146022001F0D5FCAE
:100CC000AFF2F101022001F016FD022001F07CFBE1
:100CD0000CB010BD10B5474849490860FFF73AFF0E
:100CE00010B148A006F0A8FEFFF781FF0A2001F02E
:100CF00062F810BD10B504203C490870401F4649F9
:100D00000860572000F050F80CE0384800780228BE
:100D100008D1042035490870401F3F49086057201A
:100D200000F042F8314800780128EED110BD38B506
:100D30000B463AA42468009431E013F8011B01F03B
:100D400001041DF8044000F8014BC1F340051DF8F3
:100D5000054000F8014BC1F380051DF8054000F87F
:100D6000014BC1F3C0051DF8054000F8014BC1F36C
:100D700000151DF8054000F8014BC1F340151DF8A2
:100D8000054000F8014BC1F380151DF8054000F83F
:100D9000014B6C4604EBD114247800F8014B141E6F
:100DA000A2F10102C9D138BD00F01F02012191401A
:100DB0004209920002F1E022C2F80011704700F0EF
:100DC0001F0201219140164A430942F8231070473F
:100DD0004F56373732352073657420696D6167650A
:100DE000206572726F720D0A00000000DC12FF1F96
:100DF000A0B00440B414FF1F0080004094F00F40E6
:100E0000D812FF1F6E6F2064657669636520666F78
:100E1000756E64210D0A0000A090044000010000DE
:100E200080E100E0F8480088401CF74908807047DE
:100E300010B500F0BCFF04221146002002F09FFD17
:100E400004220F21002002F09AFD4FF4E1314AF212
:100E5000C80003F09EFB04220721022002F08FFD50
:100E600004220621022002F08AFD0222082101202C
:100E700002F085FD02220921012002F080FD0222FC
:100E80000A21012002F07BFD02220B21012002F049
:100E900076FD0122002149F6C11002F071F801220D
:100EA00000214AF28A5002F06BF80021372000F04E
:100EB000A1FED6480088D64908800846008800F080
:100EC000DFFE42F21072002144F2103002F076F997
:100ED00042F210720021CF4802F070F942F2107213
:100EE0000021CD4802F06AF942F210720021CB488D
:100EF00002F064F900221146104602F014F90022B3
:100F00000121104602F00FF900220221104602F0E2
:100F10000AF900220321104602F005F94FF47A7114
:100F2000012004F057F9AFF20311012004F0B0F9E9
:100F300001220021104604F057F904F01CFA04F0D5
:100F400056FE10BD10B5B6A205210A2004F017FE0A
:100F5000B6480378B6A205210A2004F010FEB7A215
:100F600005213C2004F00BFEB6480388B6A20521FB
:100F70003C2004F004FEB6A214210A2004F0FFFD78
:100F8000B5480388B5A214210A2004F0F8FDB5A2E3
:100F900014213C2004F0F3FDB5480378B5A21421D8
:100FA0003C2004F0ECFDB5A223210A2004F0E7FD6B
:100FB000AF480378B3A223210A2004F0E0FDB3A2D6
:100FC00023213C2004F0DBFDA9480378B1A22321B2
:100FD0003C2004F0D4FDB1A232210A2004F0CFFD60
:100FE000B1480378B1A232210A2004F0C8FDB1A2B1
:100FF00032213C2004F0C3FDB0480388B0A2322166
:101000003C2004F0BCFDB0A241210A2004F0B7FD51
:10101000B0480378B0A241210A2004F0B0FDB1A28B
:1010200041213C2004F0ABFDB1480378B1A241213D
:101030003C2004F0A4FDB1A24B210A2004F09FFD46
:10104000B1480378B1A24B210A2004F098FDB2A266
:101050005F210A2004F093FDB2480388B2A25F2109
:101060000A2004F08CFDB3A25F213C2004F087FD30
:10107000B2480388B2A25F213C2004F080FD10BD7D
:1010800010B50821012002F0C3FC10B90120AE49BF
:1010900008700921012002F0BBFC10B90120AA4907
:1010A00048700A21012002F0B3FC10B90120A649C2
:1010B00088700B21012002F0ABFC10B90120A2497D
:1010C000C870A1480078A0494978022212FB0100AB
:1010D0009D498978042212FB01009B49C9780822A6
:1010E00012FB01009949087010BD38B59748007887
:1010F000092872D2DFE800F0710508532257715BAE
:101100002500FFF71FFF69E00F2091490870914902
:101110000870914908709149087091490870914987
:101120000870914908709149087091490870914977
:101130000870914908708D4908704FE0FFF7ACFCCA
:101140004CE0FFF7D7FD4FF416728C498C48FFF73F
:10115000EEFD8CA0006800900024002517E08A486E
:10116000005704EB840100EB0110A84206D1601C7B
:10117000C4B20021084602F0F0FE06E08048405D5F
:101180001DF80010002002F0E8FE681C85B2B5F5DD
:10119000965FE4DBFF21002002F0DFFE1EE001206D
:1011A0007A4908701AE005207849087016E0052091
:1011B000764908700F2066490870664908706649CC
:1011C0000870664908706649087066490870664983
:1011D00008706649087001E0FFE700BF00BF38BD36
:1011E00010B5F1E000206A490870401E69490860A6
:1011F0005B2000F0EEF900BF654800780228FBD1C3
:1012000000240020DAE00000DE12FF1F3C14FF1F64
:10121000A414FF1F104508001047100010491800C3
:101220007461726765743A20202000008714FF1FE4
:101230007461726765743A256400000074683A202E
:10124000202000008814FF1F74683A256400000005
:10125000746C3A20202000008A14FF1F746C3A2519
:1012600064000000626172323A20202020000000F9
:101270008C14FF1F626172323A25640062683A2062
:101280002020000062683A2564000000626C3A2069
:1012900020200000626C3A2564000000636F313A40
:1012A00020202020000000009614FF1F636F313AB9
:1012B0002564000037633A20200000004A13FF1F16
:1012C00037633A256400000073746174653A202026
:1012D000200000009414FF1F73746174653A256444
:1012E000000000006A756C693A20202000000000B0
:1012F0004C13FF1F6A756C693A25640066617A6851
:10130000693A2020200000006814FF1F66617A6897
:10131000693A25640000000073706565643A202016
:1013200020200000A214FF1F73706565643A2564D5
:101330000000000078783A2020202000AE14FF1F23
:1013400078783A2564000000A814FF1FAC14FF1F32
:101350002A14FF1F2C14FF1F2D14FF1F2E14FF1F14
:101360002F14FF1F3014FF1F3114FF1F3514FF1FF0
:101370003214FF1F3314FF1F3414FF1FB414FF1F58
:101380001800FF1FFE0000000C17FF1F6013FF1F57
:101390004013FF1FA0D0044000210BE000EB8002AF
:1013A000914B03EB8212525C904B1B889A4200DBFC
:1013B000641C491CB1F59F7FF0DD401C6228EBDB0B
:1013C000022C00DD01E000BF0CE700BF10BD10B52E
:1013D0008748007818B901208549087002E000208C
:1013E0008349087082480078012803D17E488149EA
:1013F000086202E080487F49086200207F49087047
:10140000401E7F4908605B2000F0E3F810BD00BF7C
:101410007A4800780228FBD170474FF00008C14697
:10142000B5E078490968784A1268881875480088D4
:10143000A8EB000006B274480088A9EB000007B2D0
:1014400072480088304400B27049088070480088B3
:10145000384400B26E4908806C48B0F90000B0F51D
:10146000487F03DB4FF44870684908806748B0F94B
:10147000000010F5C87F03DC4FF6706063490880F8
:101480006348B0F90000B0F5487F03DB4FF44870C3
:101490005F4908805E48B0F9000010F5C87F03DCA2
:1014A0004FF670605A4908805A48B0F900007043FE
:1014B00059490988554A128811FB02045548B0F968
:1014C0000000784354490988514A128811FB0205EB
:1014D00041F65830844200DB044641F658308542DC
:1014E00000DB05464D48844200DA04464B488542FD
:1014F00000DA0546002C0ADD22460121002001F019
:1015000012FE00221146104601F00DFE0AE0644270
:1015100000220121104601F006FE22460021084665
:1015200001F001FE002D0ADD2A460321002001F012
:10153000FAFD00220221104601F0F5FD0AE06D429D
:1015400000220321104601F0EEFD2A460221002070
:1015500001F0E9FD2B4800682B490968084401287F
:1015600015DA13E000220121104601F0DCFD002213
:101570001146104601F0D7FD00220321104601F06C
:10158000D2FD00220221104601F0CDFDEAE748E736
:1015900038B56946002002F025FDC8B9BDF8001035
:1015A000002002F0DAFCBDF80000C4B2BDF8001063
:1015B000002002F0D2FC312C02D0322C06D101E006
:1015C00000BFFEE701E0FFF767FAFCE700BF00BFDE
:1015D00038BD00F01F02012191404209920002F142
:1015E000E022C2F800117047000000206214FF1FC3
:1015F0008614FF1F00FA0020007D00204013FF1F0B
:10160000A0D004400400FF1F0800FF1FE412FF1FCA
:10161000E612FF1FE012FF1FE212FF1FA8E4FFFF08
:101620000246F94850F8220050F8210000F08000EE
:1016300008B1002070470120FCE770B5134633B1B4
:10164000012B1CD0022B25D0032B48D13CE0EF4CC2
:10165000225602F01F050124AC40ED4D560945F815
:10166000264000BFE84A52F8202052F8212022F0FC
:101670004002E54C54F8204044F8212030E0E24A92
:1016800052F82020126A22F00402DF4C54F8204065
:10169000226225E0DC4A52F8202052F8212042F054
:1016A0004002D94C54F8204044F82120D74C22560F
:1016B00002F01F050124AC405509AD0005F1E025FD
:1016C000C5F8004100BF0BE0CF4A52F82020126A53
:1016D00042F00402CC4C54F82040226200E000BFEB
:1016E00000BF70BDF0B50446C74850F82400406AFA
:1016F00040F00300C44951F824104862C24850F831
:101700002400406A40F00300BF4951F824104862A9
:10171000BD4850F82400806840F00300BA4951F8F1
:1017200024108860B84850F82400406A40F0400017
:10173000B54951F824104862B34850F82400406A73
:1017400040F08000B04951F8241048620022114650
:101750002046FFF772FF002700E07F1CAD4887425C
:10176000FBD3A94850F82400406A00F0400008B1BB
:101770000120F0BD0025A44850F82400C06C0544A9
:10178000A14850F82400806C05449F4850F824007C
:10179000406C05449C4850F82400006C05449A486D
:1017A00050F82400C06B0544974850F82400806B23
:1017B00005444FF4004040EA55050026924850F891
:1017C0002400C06E0644904850F82400806E064401
:1017D0008D4850F82400406E06448B4850F8240091
:1017E000006E0644884850F82400C06D06448648C0
:1017F00050F82400806D06444FF4004040EA56063D
:10180000814850F82400406A20F080007E4951F859
:10181000241048627C4850F82400C5627A4850F889
:10182000240006630020A4E710B504467A49206826
:1018300051F830000068784A216802EBC10149681C
:101840000843216852F8311008602068FFF74AFF0A
:101850006D49206851F82000806820F003006A4A32
:10186000216852F8211088601146206851F8200044
:101870008068617901F003010843216852F8211062
:1018800088601146206851F82000006A20F00300AB
:10189000216852F8211008621146206851F8200092
:1018A000006AA17A01F003010843216852F821106F
:1018B00008621146206851F82000806820F00C0072
:1018C000216852F8211088601146206851F82000E4
:1018D0008068A1790C2202EA810108434A4A216802
:1018E00052F821108860207901280BD11146206818
:1018F00051F82000006A40F04000216852F82110A1
:1019000008620BE04049206851F82000006A00F0AE
:1019100040003D4A216852F821100862207A60B9DF
:101920003949206851F82000406A40F00800364AE2
:10193000216852F8211048620BE03349206851F8C1
:101940002000406A20F008002F4A216852F8211038
:101950004862607A05287AD2DFE800F00310263E5C
:1019600060002949206851F82000406A20F00300F7
:10197000254A216852F82110486269E0224920680E
:1019800051F82000406A20F003001F4A216852F8F5
:10199000211048621146206851F82000406A2168F1
:1019A00052F82110486253E01749206851F820008E
:1019B000406A20F00300144A216852F8211048625E
:1019C0001146206851F82000406A40F0010021686B
:1019D00052F8211048623BE00B49206851F8200082
:1019E000406A20F00300084A216852F8211048623A
:1019F0001146206851F82000406A40F0020021683A
:101A000052F82110486223E05883000070830000E0
:101A100080E100E0A0860100608300007349206837
:101A200051F82000406A20F00300704A216852F803
:101A3000211048621146206851F82000406A40F0A9
:101A40000300216852F82110486201E0FFE700BF5F
:101A500000BF10BD51B1654A52F82020126A42F011
:101A60004002624B53F820301A6209E05F4A52F894
:101A70002020126A02F040025C4B53F820301A62B8
:101A8000704749B9594A52F82020D26822F0100212
:101A9000564B53F82030DA60012909D1534A52F8E5
:101AA0002020D26842F01002504B53F82030DA6008
:101AB000704773B584B00E4604AC207800F0070080
:101AC000019001208DF809008DF80A6000208DF842
:101AD00008008DF80B0001208DF80C0000208DF817
:101AE0000D008DF80E00002518E02388C3F3821244
:101AF000C3F344232B44D9B22378C3F3C20001F0CB
:101B0000F9FD2288C2F344222A44D1B22278C2F3DA
:101B1000C200002201F013FE681CC5B22068C0F3A9
:101B20008430A842E1DC01A8FFF77EFE2268110E96
:101B3000227802F00700FFF7A4FF207800F00700EA
:101B400006B070BD10B5294B53F8203053F8223041
:101B500023F01F03254C54F8204044F82230234B37
:101B600053F8203053F8223001F01F0423431F4C58
:101B700054F8204044F8223010BD02461B4850F86B
:101B80002200103050F82100704771B56C46207863
:101B900000F007052068C0F3C446002231462846FD
:101BA000FFF7D0FF00BF114850F82500006800F093
:101BB00080000028F7D000212846FFF7DEFF78BD1F
:101BC00011B10B4A42F82010704710B50848006860
:101BD00010B107490868804710BD10B50448406837
:101BE00010B103494868804710BD000058830000C9
:101BF000E812FF1F38B505460C466946022000F082
:101C00005BF82A48406B40F00400284948630222F0
:101C10000721032001F06EFD0A202549887200206B
:101C2000487105EB850000010099B1FBF0F02149F6
:101C30000880200A1E498871CC711E480088001B4C
:101C4000000A08721B480078001B48720846407959
:101C500020F0040048710846407940F008004871BF
:101C60000846407940F0010048710846007940F08C
:101C7000400008710846007940F02000087138BD26
:101C80000C490988414342F2107291FBF2F188B28B
:101C9000010A074A9171D07106490988091A090A8F
:101CA000117204490978091A517270470080044082
:101CB00000200640F012FF1F10B5034600224448E2
:101CC000406C012404EB1070424C246800FB04F2C9
:101CD000062B2AD2DFE803F0030C15291E273C4807
:101CE000406C012404EB1070B2FBF0F008601EE0C1
:101CF0003748406C012404EB1070B2FBF0F0086030
:101D000015E03348406CC0F30360401CB2FBF0F0B8
:101D100008600CE02E48406CC0F30340401CB2FB4E
:101D2000F0F0086003E00A6001E0012010BD00BF90
:101D30000020FBE701460868704703B56846026863
:101D40000A600CBD2448006840F080702249086099
:101D50002248006840F0010020490860704730B513
:101D600001461E4C62681B4C24681D4DB4FBF5F403
:101D700004FB01F3D018904205D900BF174C6468EA
:101D80008442FBD309E000BF144C64688442FBD852
:101D900000BF124C64688442FBD330BD10B50446CA
:101DA0004FF47A7104FB01F0FFF7D9FF10BD00B5C5
:101DB000FFF7C8FF00BD10B504462046FFF7EEFF51
:101DC00010BD10B504462046FFF7C9FF10BD70478F
:101DD000008004400000FF1FFCED00E0001000E068
:101DE00040420F00FE49C96A41F48051FC4AD16269
:101DF0000179012902D002291ED10EE0F94A0168B9
:101E000052F8211091F8211041F02001F54B0268A1
:101E100053F8222082F821100FE0F24A016852F8AC
:101E2000211091F8211021F02001EE4B026853F8A7
:101E3000222082F8211000E000BF00BF417931B1BB
:101E4000012913D0022938D003297DD15EE0E54A6B
:101E5000016852F8211091F8221021F00101E14BA4
:101E6000026853F8222082F822107BE0DD4A0168E4
:101E700052F8211091F8221041F00101D94B02686B
:101E800053F8222082F822101A46016852F82110D5
:101E900091F8221021F00601026853F8222082F8FE
:101EA00022101A46016852F8211091F82210026897
:101EB00053F8222082F8221054E0CA4A016852F8EE
:101EC000211091F8221041F00101C64B026853F82D
:101ED000222082F822101A46016852F8211091F847
:101EE000221021F00601026853F8222082F8221005
:101EF0001A46016852F8211091F8221041F00201AF
:101F0000026853F8222082F822102BE0B54A0168BB
:101F100052F8211091F8221041F00101B14B0268F2
:101F200053F8222082F822101A46016852F8211034
:101F300091F8221021F00601026853F8222082F85D
:101F400022101A46016800E00BE052F8211091F8C7
:101F5000221041F00401026853F8222082F8221076
:101F600000E000BF00BF817911B101291ED10EE050
:101F70009C4A016852F8211091F8211021F040018B
:101F8000984B026853F8222082F821100FE0954AFE
:101F9000016852F8211091F8211041F04001914B55
:101FA000026853F8222082F8211000E000BF00BF31
:101FB0008C4A016852F8211091F8201021F001019B
:101FC000884B026853F8222082F820101A460168D4
:101FD00052F8211091F8201021F00201026853F804
:101FE000222082F820101A46016852F8211091F838
:101FF000201021F00401026853F8222082F82010FA
:102000001A46016852F8211091F8211041F0800120
:10201000026853F8222082F8211070470146714867
:1020200050F8210090F82300000970476D4A52F8DB
:10203000202092F8232022F0F0026A4B53F820303F
:1020400083F82320674A52F8202092F82320F023B7
:1020500003EA01131A43634B53F8203083F823201B
:102060007047604A52F8202092F8232022F00F0295
:102070005C4B53F8203083F823205A4A52F8202032
:1020800092F8232001F00F031A43564B53F82030E7
:1020900083F82320704770B504460D46082D7CD286
:1020A000DFE805F010041D2E3F5069844E490857A3
:1020B00000F01F02012191404C4A430942F82310CD
:1020C00000BF96E0474850F8240090F8220020F026
:1020D0008000444951F8241081F8220089E04148E9
:1020E00050F8240090F8210040F004003D4951F8D8
:1020F000241081F821003C49085700F056F978E097
:10210000384850F8240090F8210040F0020035498A
:1021100051F8241081F821003349085700F045F99F
:1021200067E0304850F8240090F8210040F00100AA
:102130002C4951F8241081F821002B49085700F050
:1021400034F956E0274850F8240090F8210040F078
:102150000400244951F8241081F82100214850F846
:10216000240090F8220040F080001E4951F824100D
:1021700081F822003DE01B4850F8240090F821002F
:1021800040F00200174951F8241081F82100154849
:1021900050F8240090F8220000E029E040F0800090
:1021A000104951F8241081F8220022E00D4850F81F
:1021B000240090F8210040F001000A4951F8241051
:1021C00081F82100074850F8240090F8220040F0E0
:1021D0008000044951F8241081F8220009E0000031
:1021E00000800440748300007C83000080E100E0F4
:1021F00000BF00BF70BD724951F8201091F8211046
:1022000041F010016E4A52F8202082F821107047E8
:102210006B4A52F8202092F8222022F01802684BD4
:1022200053F8203083F8222031B101290FD0022940
:102230001AD0032932D124E0614A52F8202092F8C2
:1022400022205F4B53F8203083F8222027E05C4A9D
:1022500052F8202092F8222042F00802584B53F8FE
:10226000203083F822201AE0554A52F8202092F8B4
:10227000222042F01002524B53F8203083F82220E3
:102280000DE04F4A52F8202092F8222042F0180226
:102290004B4B53F8203083F8222000E000BF00BFF2
:1022A000704730B50346002011E011F81040444D4E
:1022B00055F8235005F8104031F81040240A404DDD
:1022C00055F8235005EB40056C70441CE0B2904279
:1022D000EBDB30BD11B13B4A42F82010704710B51E
:1022E0003748006890F8214004F0040048B13448B1
:1022F000006890F8200020F004003149096881F856
:10230000200004F0010048B12D48006890F820003A
:1023100020F001002A49096881F8200004F0020039
:1023200048B12748006890F8200020F002002449B6
:10233000096881F820002348006810B12149086825
:10234000804710BD10B51E48006890F8214004F089
:10235000040048B11A48006890F8200020F00400FA
:102360001749096881F8200004F0010048B11448B9
:10237000006890F8200020F001001149096881F8F8
:10238000200004F0020048B10D48006890F82000D9
:1023900020F002000A49096881F8200009484068D5
:1023A00010B108494868804710BD00F01F020121A4
:1023B00091404209920002F1E022C2F800117047F8
:1023C00074830000F412FF1F00F00F01F94A9176A8
:1023D000704710B50446F848C06B40F00200F6495B
:1023E000C8630846006C40F0020008642378F14896
:1023F000C068012199408843EE49C860607800F0C8
:102400003F00EE495854A07910B101280ED106E0E2
:10241000EA48185C20F04000E849585407E0E748D3
:10242000185C40F04000E549585400E000BF00BF90
:102430000021E34800EB4310C180E14800EB43106A
:1024400081836088DE4901EB43118860A088C0F376
:102450000E01DB4800EB4310C182A088C0F30E01DF
:10246000D74800EB4310C183D54800EB4310E16827
:102470000160208981B2D24800EB43108180D048AE
:1024800000EB4310C188207C4FF4E06202EA002098
:102490000143CB4800EB4310C180C94800EB431017
:1024A000C088217E4FF4784202EAC1210843C44922
:1024B00001EB4311C880C24901EB43116069C86058
:1024C000BF4800EB4310216A0161A08B81B2BC4878
:1024D00000EB43108182BA4800EB4310C18894F8A6
:1024E000240000F007000143B54800EB4310C18011
:1024F000B34800EB4310C08894F82C10F82202EA8D
:10250000C1010843AE4901EB4311C880AC4901EB5E
:102510004311A06A8861AA4800EB4310808B40F009
:102520000801A74800EB431081834CF20A01A4483C
:1025300000EB43108183A148185C40F080009F4964
:1025400058541846FFF740FF9A48406A01219940C5
:10255000084398494862184610BD202200210FE028
:1025600001208840974B1B68184040B901208840E3
:10257000944B1B681843934B186008467047491CDE
:102580009142EDD30020F9E7012181408D4A126884
:102590008A438C490A6070470146894800EB411024
:1025A000C08AC0F30E007047854A02EB4012D28AFF
:1025B000D30BDB03824A02EB4012D382804A02EB48
:1025C0004012D28AC1F30E031A437D4B03EB401332
:1025D000DA82704700F00F01764AD176704751B128
:1025E000774A02EB4012928B42F00803744A02EBE6
:1025F0004012938309E0724A02EB4012928B22F060
:1026000008036F4A02EB40129383704710B50AB378
:102610006B4B03EB40139B8B43F02004684B03EBA5
:1026200040139C83664B03EB40139B8B23F4706435
:10263000634B03EB40139C83614B03EB40139B8B79
:102640004FF4706404EA012423435D4C04EB40140E
:10265000A38309E05A4B03EB40139B8B23F0200428
:10266000574B03EB40139C8310BD30B50B466AB14A
:10267000554C215601F01F050124AC404D09AD0019
:1026800005F1E025C5F8004100BF00BF13B1012BE3
:102690002ED116E052B14A4901EB4011898B41F02D
:1026A0000404474901EB40118C8309E0444901EBE4
:1026B0004011898B21F00404414901EB40118C83C6
:1026C00017E052B13E4901EB4011898B41F0020401
:1026D0003B4901EB40118C8309E0394901EB401182
:1026E000898B21F00204364901EB40118C8300E014
:1026F00000BF00BF30BD11B1344A42F8201070470E
:1027000001462C48C06801228A40104070B12C4814
:1027100000EB4110808B00F0800028B101F00F0029
:10272000244A1077002070470120FCE701F00F00D9
:10273000204A10770020F6E7214A02EB401211618F
:10274000704701461E4800EB4110006970471C4A63
:1027500002EB4012116070470146194800EB41102E
:10276000006870471348006840F400301149086061
:10277000704710B500200F49C8771448006810B1A1
:1027800012490868804710BD10B501200949C87773
:102790000E48406810B10D494868804710BD10B51B
:1027A00002200449C8770948806810B10749886841
:1027B000804710BD008000400080044000100240AF
:1027C00000900040FC12FF1F7E8300004817FF1F8F
:1027D00010B503204649C8774648C06810B145493E
:1027E000C868804710BD10B504204149C8774148EA
:1027F000006910B13F490869804710BD10B5052038
:102800003B49C8773B48406910B13A49486980471D
:1028100010BD10B506203649C8773648806910B11A
:1028200034498869804710BD10B507203049C87702
:102830003048C06910B12F49C869804710BD10B534
:1028400008202B49C8772B48006A10B12949086A2B
:10285000804710BD10B509202549C8772548406A32
:1028600010B12449486A804710BD10B50A2020499C
:10287000C8772048806A10B11E49886A804710BD19
:1028800010B50B201A49C8771A48C06A10B1194907
:10289000C86A804710BD10B50C201549C877154887
:1028A000006B10B11349086B804710BD10B50D20A7
:1028B0000F49C8770F48406B10B10E49486B8047ED
:1028C00010BD10B50E200A49C8770A48806B10B1B8
:1028D0000849886B804710BD10B50F200449C877A0
:1028E0000448C06B10B10349C86B804710BD00009D
:1028F000008000404817FF1F10B5FE4B53F83030E2
:102900001B68FC4C04EBC00464682343F94C54F886
:10291000304023600023F84C54F820402360F64BED
:1029200053F820305B6D43F00403F34C54F820401F
:1029300063650023F04C54F820406360EE4C54F87B
:102940002040E364EC4B53F8203099604FF0FF33A4
:10295000E94C54F82040C4F89830E74B53F8203045
:102960001B6823F01803E44C54F820402360E24B2A
:1029700053F820301B6843F00803DF4C54F8204024
:102980002360DD4B53F820301B6823F00703DA4C3B
:1029900054F820402360D84B53F820301B6802F0D5
:1029A00007042343D44C54F82040236010BD014653
:1029B00009B1012901D100207047022901D0032962
:1029C00001D10120F8E7042901D0052901D1022015
:1029D000F2E70320F0E72DE9F04104460E461546E4
:1029E0001F464FF00008062D34D2DFE805F0030B38
:1029F000131B232B3046FFF7DAFFC100012000FA3A
:102A000001F828E03046FFF7D2FFC100022000FAAB
:102A100001F820E03046FFF7CAFFC100042000FAA9
:102A200001F818E03046FFF7C2FFC100102000FA9D
:102A300001F810E03046FFF7BAFFC100202000FA8D
:102A400001F808E03046FFF7B2FFC100402000FA6D
:102A500001F800E000BF00BF012F0AD1A64850F8DE
:102A60002400406E40EA0800A34951F8241048664B
:102A700009E0A14850F82400406E20EA08009E4971
:102A800051F824104866BDE8F08110B512B1012A52
:102A90003AD11CE0984B53F820300C3353F83130C6
:102AA00023F00404944B53F820300C3343F83140A6
:102AB000914B53F820300C3353F8313043F0080475
:102AC0008D4B53F820300C3343F831401DE08A4BD6
:102AD00053F820300C3353F8313043F00404864B64
:102AE00053F820300C3343F83140834B53F82030F7
:102AF0000C3353F8313023F008047F4B53F8203067
:102B00000C3343F8314000E000BF00BF10BD70B58A
:102B100004460D461646062E7ED2DFE806F0035B1D
:102B2000F1FDA2EF744850F82400406D20F0010040
:102B3000714951F8241048656F4850F82400D0F8C6
:102B4000800020F001006C4951F82410C1F8800089
:102B5000694850F82400006820F02000664951F8C8
:102B600024100860644850F824000C3050F83500F8
:102B700040F03001604850F824000C3040F8351027
:102B8000002229462046FFF780FF00231A462946E7
:102B90002046FFF720FF0023012229462046FFF7A9
:102BA0001AFF0023022229462046FFF714FF0023C4
:102BB000032229462046FFF70EFF00230422294660
:102BC0002046FFF708FF0023052229462046FFF78D
:102BD00002FFD3E1484850F82400406D20F0010086
:102BE000454951F824104865434850F82400D0F86E
:102BF000800020F00100404951F82410C1F8800005
:102C00003D4850F82400006840F020003A4951F84F
:102C100024100860002300E0AFE11A462946204650
:102C2000FFF7D9FE0023012229462046FFF7D3FEF5
:102C30000023022229462046FFF7CDFE002303226F
:102C400029462046FFF7C7FE0023042229462046D6
:102C5000FFF7C1FE0023052229462046FFF7BBFEF1
:102C60008CE1254850F82400D0F8800020F00100C5
:102C7000214951F82410C1F880001F4850F8240061
:102C8000406D20F001001C4951F8241048651A4895
:102C900050F82400006820F02000174951F8241053
:102CA0000860154850F824000C3050F8350020F02A
:102CB0003001114850F824000C3040F83510002342
:102CC0001A4629462046FFF786FE002301222946A0
:102CD0002046FFF780FE0023022229462046FFF708
:102CE0007AFE0023032229462046FFF774FE0023C4
:102CF000042206E0A883000090830000EEE00BE0D1
:102D00007BE029462046FFF766FE00230522294680
:102D10002046FFF760FE31E1F74850F82400D0F874
:102D2000800020F00100F44951F82410C1F880001F
:102D3000F14850F82400006820F02000EE4951F8D6
:102D400024100860EC4850F82400406D40F0040066
:102D5000E94951F824104865E74850F82400406DCF
:102D600040F00100E44951F8241048650123002295
:102D700029462046FFF72FFE01231A462946204602
:102D8000FFF729FE0023022229462046FFF723FEF3
:102D90000023032229462046FFF71DFE01230422BB
:102DA00029462046FFF717FE002305222946204624
:102DB000FFF711FED04850F824000C3050F83500D1
:102DC00040F03001CC4850F824000C3040F8351069
:102DD000002229462046FFF758FE0320C64951F835
:102DE00024108865C44850F82400806D40F08000AD
:102DF000C14951F824108865C0E0BF4850F824004C
:102E0000D0F8800020F00100BB4951F82410C1F82F
:102E10008000B94850F82400006820F02000B6492E
:102E200051F824100860B44850F82400406D40F078
:102E30000400B14951F824104865AF4850F8240007
:102E4000406D40F00100AC4951F824104865012361
:102E5000002229462046FFF7BEFD00230122294615
:102E60002046FFF7B8FD0023022229462046FFF73F
:102E7000B2FD0023032229462046FFF7ACFD0123C3
:102E8000042229462046FFF7A6FD002305222946F5
:102E90002046FFF7A0FD984850F824000C3050F869
:102EA000350040F03001944850F824000C3040F8D0
:102EB0003510002229462046FFF7E7FD03208E4902
:102EC00051F8241088658C4850F82400806D40F03B
:102ED0008000894951F8241088654FE0864850F8F1
:102EE0002400D0F8800040F00100834951F82410FC
:102EF000C1F88000804850F82400006820F02000CD
:102F00007D4951F8241008607B4850F82400406D3A
:102F100040F00400784951F824104865764850F88C
:102F20002400406D40F00100734951F824104865B9
:102F30000123002229462046FFF74DFD00230122F0
:102F400029462046FFF747FD002302222946204656
:102F5000FFF741FD0023032229462046FFF73BFDF2
:102F60000023042229462046FFF735FD00230522D1
:102F700029462046FFF72FFD00E000BF00BF70BDCF
:102F8000F7B50E4617466C46217801F0070004227B
:102F90004FF6FF71FFF7B0FC217801F00700052222
:102FA0000021FFF7B4FD16B1012E48D123E02078AF
:102FB00000F00700504951F82000D0F8800020F0C0
:102FC0002000217801F007014B4A52F82110C1F886
:102FD0008000207800F00700114651F82000D0F85A
:102FE000800020F01000217801F0070152F8211034
:102FF000C1F8800024E0207800F007003E4951F835
:103000002000D0F8800040F02000217801F0070176
:10301000394A52F82110C1F88000207800F00700EA
:10302000114651F82000D0F8800040F010002178BF
:1030300001F0070152F82110C1F8800000E000BF44
:1030400000BF17B1012F26D112E0207800F0070051
:10305000294951F82000D0F8800020F0080021789C
:1030600001F00701244A52F82110C1F8800013E052
:10307000207800F00700204951F82000D0F88000A7
:1030800040F00800217801F007011B4A52F8211096
:10309000C1F8800000E000BF00BF002523E02388C6
:1030A000C3F38212C3F344232B44D9B22378C3F36E
:1030B000C20000F01FFB2288C2F344222A44D1B28E
:1030C0002278C2F3C200012200F039FB2288C2F349
:1030D00044222A44D1B22278C2F3C200012200F075
:1030E0007FFB681CC5B22068C0F38430A842D6DCE0
:1030F000207800F00700FEBD90830000FE4B53F8DF
:103100002030D3F88030C3F380031370FA4B53F8A8
:1031100020305B689BB20B6070470021F64A52F882
:1031200020205160704770B51346F34C54F820408E
:10313000A4685C4342F21075B4FBF5F2EE4C54F80F
:103140002040646E04F001347CB30C4601EBD4756E
:103150006D10A1EB450585B10026E74C54F82040E1
:103160000C344D1E04EBC5046660E34C54F820405B
:103170000C3404EBC10462600FE00025DE4C54F80F
:1031800020400C3404EBC1046560DB4C54F8204053
:103190000C344D1C04EBC50462604FF0FF34D64D77
:1031A00055F82050C5F8984007E0FFE7D24C54F896
:1031B00020400C3404EBC104626070BD2DE9F74F70
:1031C00082B089469046002702AC00250DE0238896
:1031D000C3F38212C3F344232B44D9B22378C3F33D
:1031E000C20000F087FA681CC5B22068C0F38430C2
:1031F000A842ECDC4FF6FF7B01A90220FEF75CFD44
:103200000198B0FBF8F05946B0FBF1F60198B0FB1D
:10321000F8F0B0FBF6F0B0F5803F00D3761C002547
:103220001BE00120A840301A03D50120A840801BD4
:1032300002E00120A840301A58450CD22F46012048
:10324000A840301A03D50120A840801B02E00120CD
:10325000A840301A8346681CC5B2072DE1DB012067
:10326000B840B04201DA781CC7B2072F00DD07274B
:103270000120B8400199B1FBF0F0B0FBF8F0A0F1EB
:10328000010A217801F007003A465146FFF734FB66
:10329000B9F1000F06D0B9F1010F0DD0B9F1020F4D
:1032A0001ED113E02268C2F3C441227802F0070065
:1032B0000022FFF72CFC14E02268C2F3C4412278FC
:1032C00002F007000222FFF722FC0AE02268C2F3A4
:1032D000C441227802F007000322FFF718FC00E047
:1032E00000BF00BF2268C2F3C441227802F0070089
:1032F00041F28832FFF717FF207800F0070005B091
:10330000BDE8F08F73B50E466C4600250CE02388AF
:10331000C3F38212C3F344232B44D9B22378C3F3FB
:10332000C20000F0E7F96D1C2068C0F38430A842A9
:10333000EDD8217801F0070032464FF6FF71FFF714
:10334000DBFA2268C2F3C441227802F007000422AB
:10335000FFF7DDFB7CBD10B5674B53F820300C3315
:1033600053F8313023F00C04634B53F820300C3306
:1033700043F8314022B1012A1FD0022A49D139E055
:103380005D4B53F820300C3353F8313023F00804F0
:10339000594B53F820300C3343F83140564B53F817
:1033A00020300C3353F8313043F00404524B53F8BF
:1033B00020300C3343F831402CE04F4B53F8203091
:1033C0000C3353F8313043F008044B4B53F82030A2
:1033D0000C3343F83140484B53F820300C3353F84A
:1033E000313023F00404444B53F820300C3343F8BD
:1033F00031400FE0404B53F820300C3353F831305C
:1034000043F00C043C4B53F820300C3343F831406C
:1034100000E000BF00BF10BD0246374850F8220050
:103420000C3000EBC10040687047334A52F820204E
:103430005160704711B1314A42F82010704730B5E1
:1034400011297DD2DFE801F009202122232425263D
:103450002748494A4B4C4D4E4F0052B1264B53F82A
:1034600020301B6843F04003234C54F82040236075
:1034700009E0214B53F820301B6823F040031E4C19
:1034800054F82040236084E000BF00BF00BF00BFAD
:1034900000BF00BF00BF7AB1174B53F820300C3388
:1034A0004C1E53F8343043F04005134B53F8203092
:1034B0000C3343F834500EE00F4B53F820300C33EC
:1034C0004C1E53F8343023F040050B4B53F820309A
:1034D0000C3343F834505CE000BF00BF00BF00BFB6
:1034E00000BF00BF00BFC2B1034B53F820400C34F3
:1034F000A1F1090304E00000908300008817FF1F7A
:1035000054F8333043F04005764B53F820400C34E8
:10351000A1F1090344F8335011E0724B53F82040F5
:103520000C34A1F1090354F8333023F040056D4BFE
:1035300053F820400C34A1F1090344F8335000E063
:1035400026E092B1674B53F820400C34A1F10903F7
:1035500054F8333043F00105624B53F820400C34EB
:10356000A1F1090344F8335011E05E4B53F82040B9
:103570000C34A1F1090354F8333023F00105594B01
:1035800053F820400C34A1F1090344F8335000E013
:1035900000BF00BF544C235603F01F050124AC406C
:1035A0005D09AD0005F1E025C5F8004100BF30BD63
:1035B00010B54E48006810B14C490868804749482A
:1035C0000068006800F0C00038B146480068006834
:1035D00020F08000434909680860002415E0414854
:1035E00000680C3050F8340000F0C00060B13D4875
:1035F00000680C3050F8340020F080013948006831
:103600000C3040F8341004E0641C39480068A042D3
:10361000E5D800BF10BD10B53448406810B133493B
:10362000486880472F484068006800F0C00038B103
:103630002C484068006840F080002A4949680860CA
:10364000002415E0274840680C3050F8340000F0A2
:10365000C00060B1234840680C3050F8340020F0BE
:103660008001204840680C3040F8341004E0641CAD
:103670001F484068A042E5D800BF10BD10B51B48E8
:10368000806810B1194988688047164880680068CA
:1036900000F0C00038B113488068006820F0800056
:1036A000104989680860002415E00E4880680C30D5
:1036B00050F8340000F0C00060B10A4880680C3057
:1036C00050F8340020F08001064880680C3040F843
:1036D000341004E0641C06488068A042E5D800BFAE
:1036E00010BD000090830000C08300008817FF1FFA
:1036F0009C83000010B5FC4B9B6BFC4C54F82040A5
:103700002343F94CA363FA4B53F8203053F821308C
:1037100023F4E063F64C54F8204044F82130F44B95
:1037200053F8203053F821304FF4E06404EA0224C7
:103730002343EF4C54F8204044F8213010BD10B51D
:10374000E94B9B6BE94C54F820402343E64CA363C0
:1037500022B1012A0FD0022A3FD125E0E44B53F8D1
:10376000203053F8213023F00203E14C54F820407C
:1037700044F8213032E0DE4B53F8203053F821304A
:1037800043F00203DA4C54F8204044F82130D84B7F
:1037900053F8203053F8213043F00103D44C54F84F
:1037A000204044F8213019E0D14B53F8203053F831
:1037B000213043F00203CE4C54F8204044F821302D
:1037C000CB4B53F8203053F8213023F00103C84C81
:1037D00054F8204044F8213000E000BF00BF10BD85
:1037E00010B5C14B9B6BC14C54F820402343BE4CD9
:1037F000A363012A0CD1BE4B53F8203053F821307B
:1038000043F02003BA4C54F8204044F821300BE038
:10381000B74B53F8203053F8213023F02003B44C39
:1038200054F8204044F8213010BD10B5AE4B9B6BCE
:10383000AE4C54F820402343AB4CA363012A0CD177
:10384000AB4B53F8203053F8213043F01003A84C11
:1038500054F8204044F821300BE0A54B53F82030B9
:1038600053F8213023F01003A14C54F8204044F8C1
:10387000213010BD10B59C4B9B6B9C4C54F82040E4
:103880002343994CA363012A0BD19A4B53F8203060
:103890005B6901248C402343964C54F820406361BB
:1038A0000AE0944B53F820305B6901248C40A34319
:1038B000904C54F82040636110BD10B50446E07888
:1038C000052854D2DFE800F00313233343002179A5
:1038D00020780022FFF733FF217920780022FFF7BC
:1038E0007FFF217920780022FFF7C4FF40E0217993
:1038F00020780222FFF723FF217920780022FFF7AA
:103900006FFF217920780022FFF7B4FF30E02179A2
:1039100020780122FFF713FF217920780022FFF79A
:103920005FFF217920780022FFF7A4FF20E02179B2
:1039300020780122FFF703FF217920780122FFF789
:103940004FFF217920780122FFF794FF10E02179C1
:1039500020780022FFF7F3FE217920780022FFF77C
:103960003FFF217920780122FFF784FF00E000BFAC
:1039700000BF217920780122FFF7BCFE10BD7CB585
:1039800004460D461646E0B28DF800008DF803603F
:1039900001956846FFF791FFE0B27CBD10B5524B30
:1039A0009B6B524C54F8204023434F4CA3635AB1B5
:1039B000504B53F820305B6801248C4023434D4C1E
:1039C00054F8204063600AE04A4B53F820309B686B
:1039D00001248C402343474C54F82040A36010BD81
:1039E000444A52F82020526801238B401A43414B2D
:1039F00053F820305A6070473E4A52F820209268AF
:103A000001238B401A433B4B53F820309A60704798
:103A10000246384850F822004069C84000F00100D2
:103A200038B1344850F822000068C84000F0010066
:103A30007047304850F822000069C84000F001008B
:103A4000F6E72C4A52F82020D26801238B401A4313
:103A5000284B53F82030DA6070470146254850F86B
:103A6000210000697047234A52F8202011607047F6
:103A70002DE9F04104460D4616461F461A48806B54
:103A80001A4951F82410084317498863184850F818
:103A9000240050F8250020F47020154951F8241016
:103AA00041F8250067B91449085700F01F020121A9
:103AB0009140124A430942F8231000BFBDE8F0814B
:103AC000092E77D2DFE806F01C29360543546577C6
:103AD0008800074850F8240050F82500044951F8A0
:103AE000241041F8250089E000800440EC830000A8
:103AF000D8830000C48300000084000080E100E05F
:103B0000684850F8240050F8250040F4803065499A
:103B100051F8241041F8250070E0624850F8240064
:103B200050F8250040F400305E4951F8241041F867
:103B3000250063E05B4850F8240050F8250040F46D
:103B40004030584951F8241041F8250056E05548B6
:103B500050F8240050F8250040F40020514951F855
:103B6000241041F825005049085700F090F845E02E
:103B70004C4850F8240050F8250040F410204949E2
:103B800051F8241041F825004749085700F07FF804
:103B900034E0444850F8240050F8250040F4202038
:103BA000404951F8241041F825003F49085700F0DA
:103BB0006EF823E021E03B4850F8240050F825003F
:103BC00040F43020374951F8241041F82500364997
:103BD000085700F05CF811E0324850F8240050F823
:103BE000250040F440202F4951F8241041F82500C9
:103BF0002D49085700F04BF800E000BF00BF00BFA0
:103C00005CE72A4A926B2A4B53F820301A43274B21
:103C10009A6311B1274A42F82010704710B5214825
:103C20000068D0F8A0404FF0FF301E490968C1F885
:103C3000A0002048006818B11E4801682046884747
:103C400010BD10B517484068D0F8A0404FF0FF30C5
:103C500014494968C1F8A0001648406818B11548D1
:103C600041682046884710BD10B50E488068D0F8DE
:103C7000A0404FF0FF300B498968C1F8A0000D4803
:103C8000806818B10B4881682046884710BD00F055
:103C90001F02012191404209920002F1E022C2F884
:103CA00000117047D88300000084000000800440A9
:103CB000EC8300009417FF1F10B50022072102209B
:103CC000FFF76CFE0220FEF77CF80122062102209D
:103CD000FFF764FE0220FEF774F80122072102209C
:103CE000FFF75CFE0220FEF76CF80022062102209E
:103CF000FFF754FE0220FEF764F80022072102209D
:103D0000FFF74CFE10BD10B5002207210220FFF77F
:103D100045FE002206210220FFF740FE0220FEF7AA
:103D200050F8012207210220FFF738FE0220FEF79B
:103D300048F8012206210220FFF730FE0220FEF79C
:103D400040F8002207210220FFF728FE0220FEF79C
:103D500038F8002206210220FFF720FE10BD10B522
:103D60000024022206211046FFF709FE0022072147
:103D70000220FFF713FE0220FEF723F806E0601C86
:103D800084B2B4F5C87F01DD012010BD06210220F8
:103D9000FFF73EFE0128F2D0042206210220FFF7A1
:103DA000EEFD06210220FFF727FE0220FEF709F8AC
:103DB000012207210220FFF7F1FD0220FEF701F8A2
:103DC000002207210220FFF7E9FD0020DDE770B5A2
:103DD0000446002624E0002207210220FFF7DEFD32
:103DE0000220FDF7EEFFC4F3C01206210220FFF708
:103DF000D5FD0220FDF7E5FF012207210220FFF794
:103E0000CDFD0220FDF7DDFF002207210220FFF794
:103E1000C5FD0220FDF7D5FF6006040E701CC6B27A
:103E2000082ED8DBFFF79BFFC5B20DB1012070BD96
:103E30000020FCE72DE9F04107460D461646002418
:103E4000FFF73AFF3846FFF7C2FF04442846FFF762
:103E5000BEFF04443046FFF7BAFF0444FFF753FFA8
:103E600014B10120BDE8F0810020FBE72DE9F0410D
:103E700005460E460024FFF71FFF2846FFF7A7FF61
:103E80003046FFF7A4FFFFF73EFFFFF715FF691C61
:103E9000C8B2FFF79CFF00272EE000220721022076
:103EA000FFF77CFD0220FDF78CFF02220621104661
:103EB000FFF765FD0220FDF784FF012207210220A4
:103EC000FFF76CFD0220FDF77CFF06210220FFF7C3
:103ED0009FFD012801D1601CC4B20220FDF771FFD3
:103EE000002207210220FFF759FD0220FDF769FF9C
:103EF0006006040E781CC7B2082FCEDB0422062110
:103F00000220FFF73CFD06210220FFF769FD002299
:103F100007210220FFF742FD0220FDF752FF012298
:103F200007210220FFF73AFD0220FDF74AFF002299
:103F300007210220FFF732FDFFF7E5FE2046BDE82E
:103F4000F08100000146FB4850F82100007CC0F3DE
:103F50000210F94A52F82000704730B503460C466B
:103F6000F44850F82300007C00F0800050B100BFFE
:103F70001846FFF7E7FFEF4951F82310097D884203
:103F8000F6D908E000BFEB4850F82300007900F0B4
:103F900080000028F7D0E74951F82310CC71C4F312
:103FA000002555B1E34850F82300807940F04000E7
:103FB000E04951F82310887109E0DE4850F82300E9
:103FC000807920F04000DB4951F82310887130BD22
:103FD00030B504460D46A1B2D8480078FFF7BDFFC2
:103FE000204630BD10B502460023D24850F82200CA
:103FF000007900F0200078B1CE4850F82200807996
:10400000C309180208800888CA4C54F82240E47991
:1040100020430880002010BD0120FCE718B50446AD
:1040200000BF6946C5480078FFF7DCFF0028F8D1DB
:10403000BDF80000C0B218BD30B50379C04C54F8CB
:1040400033301B680479BE4D05EBC4046468234318
:10405000047955F8344023600379B64C54F8233082
:10406000DB7823F00C030479B24D55F82440E3705B
:10407000846824010368B3FBF4F399B203685B011D
:1040800084682401B3FBF4F3202404FB1133DAB277
:1040900003792C4654F823301B78C1F304242343BE
:1040A000047955F824402370047955F82440617050
:1040B00003792C4654F823309B7A02F01F042343E3
:1040C000047955F82440A372037B23B1022B1AD044
:1040D000032B48D12FE00379964C54F823309B787A
:1040E00023F002030479934D55F82440A37003791B
:1040F0002C4654F823309B7823F01003047955F8AC
:104100002440A37030E003798A4C54F823309B7824
:1041100043F002030479874D55F82440A3700379D6
:104120002C4654F823309B7823F00103047955F88A
:104130002440A37018E003797E4C54F823309B7818
:1041400043F0020304797B4D55F82440A3700379B2
:104150002C4654F823309B7843F00103047955F83A
:104160002440A37000E000BF00BF437B13B1012BCC
:104170006ED136E003796F4C54F823309B7803F00E
:104180000203B3B1037954F823309B7843F0100352
:104190000479684D55F82440A37003792C4654F8EF
:1041A00023309B7A23F02003047955F82440A3722E
:1041B00016E003795F4C54F823309B7823F010030A
:1041C00004795C4D55F82440A37003792C4654F8CB
:1041D00023309B7A23F02003047955F82440A372FE
:1041E00037E00379534C54F823309B7803F00203F3
:1041F000B3B1037954F823309B7843F0100304796A
:104200004C4D55F82440A37003792C4654F82330C4
:104210009B7A43F02003047955F82440A37216E0FA
:104220000379444C54F823309B7843F0100304790D
:10423000404D55F82440A37003792C4654F82330A0
:104240009B7A23F02003047955F82440A37200E000
:1042500000BF00BF0379374C54F823305B7923F05B
:1042600020030479334D55F82440637103792C46BB
:1042700054F82330DB7843F00C03047955F82440DC
:10428000E370304B1B7813B103792C4C237000235F
:104290002C4C237030BD00BF264951F820100979FD
:1042A00001F080010029F7D0224951F82010C97887
:1042B00021F00C011F4A52F82020D170204951F8FA
:1042C000301009681E4A02EBC002526811431C4AB2
:1042D00052F8302011607047194951F830100968C0
:1042E000174A02EBC0025268114009B1134A10701C
:1042F000704700BF0F4A52F82020127902F0800266
:10430000002AF7D051B10B4A52F82020127C42F01B
:104310008002084B53F820301A7409E0054A52F81D
:104320002020127C22F08002024B53F820301A74B5
:104330007047000008840000588400000013FF1F2D
:10434000208400002413FF1F51B1FE4A52F82020A0
:10435000127C42F00802FB4B53F820301A7409E03B
:10436000F84A52F82020127C22F00802F54B53F84C
:1043700020301A7470470146F24850F82100007C42
:1043800000F00700F04A52F820007047ED4A52F85A
:104390002020D27822F00802EA4B53F82030DA705D
:1043A000E84B53F82030D974E64A52F82020D278EE
:1043B00042F00802E34B53F82030DA707047E14ACC
:1043C00052F82020D27822F00402DE4B53F820303D
:1043D000DA70DC4B53F820305975DA4A52F8202055
:1043E000D27842F00402D74B53F82030DA7070478D
:1043F00070B504460E461546D44850F8340000689F
:10440000D24901EBC40149680843D04951F834103E
:10441000086036B1012E3AD0022E1DD0032E6FD186
:1044200062E055B1C74850F82400C07840F08000E1
:10443000C44951F82410C87009E0C24850F824005B
:10444000C07820F08000BF4951F82410C870C049DE
:10445000085700F07FFA76E055B1BA4850F82400CA
:10446000C07840F02000B74951F82410C87009E026
:10447000B44850F82400C07820F02000B14951F829
:104480002410C870B249085700F064FA5BE055B1D7
:10449000AC4850F82400C07840F08000A94951F899
:1044A0002410C87009E0A74850F82400C07820F014
:1044B0008000A44951F82410C87055B1A14850F8A3
:1044C0002400C07A40F080009E4951F82410C87240
:1044D00009E09C4850F82400C07A20F080009949F7
:1044E00051F82410C8722EE05DB1964850F82400AF
:1044F000C07840F02000934951F82410C8700AE0B9
:1045000020E0904850F82400C07820F020008D4929
:1045100051F82410C87055B18A4850F82400C07A68
:1045200040F02000874951F82410C87209E08548FE
:1045300050F82400C07A20F02000824951F824105D
:10454000C87200E000BF00BF70BD804A52F8302042
:1045500012687E4B03EBC0035B681A437B4B53F836
:1045600030301A6011B17B4A42F820107047774A08
:1045700052F830201268754B03EBC0035B681A4396
:10458000724B53F830301A6011B1734A42F8201060
:10459000704773B586B00E4606AC0396207800F0DF
:1045A00007008DF8080000208DF810008DF811002C
:1045B00005A90220FDF780FB207800F0070020B15C
:1045C000207800F00700012803D105A90020FDF79D
:1045D00073FB0598019000250DE02388C3F3821238
:1045E000C3F344232B44D9B22378C3F3C200FFF7AB
:1045F00081F8681CC5B22068C0F38430A842ECDCA6
:1046000001A8FFF719FD217801F007000021FFF74D
:1046100070FE217801F007000021FFF795FE207859
:1046200000F0070008B070BD08B546480068007982
:1046300000F0800088B143480068C07800F0800036
:1046400058B14448006818B1424801686846884734
:10465000BDF800003B490968C8713A480068007914
:1046600000F0200088B137480068C07800F02000D2
:1046700058B134480068C07900903748006820B1CC
:1046800035480168BDF80000884708BD08B52D48C9
:104690004068007900F0800088B12A484068C078FE
:1046A00000F0800058B12B48406818B12948416893
:1046B00068468847BDF8000022494968C87121480A
:1046C0004068007900F0200088B11E484068C0783A
:1046D00000F0200058B11B484068C07900901E4887
:1046E000406820B11C484168BDF80000884708BDFB
:1046F00008B514488068007900F0800088B111483E
:104700008068C07800F0800058B11248806818B105
:104710001048816868468847BDF8000009498968E3
:10472000C87108488068007900F02000F0B10548A1
:104730008068C07800F02000C0B102488068C0796D
:1047400000900BE0088400005884000020840000E2
:1047500050840000A817FF1FC017FF1F8348806800
:1047600020B182488168BDF80000884708BD08B5BF
:104770007F48C068007900F0800088B17C48C0683C
:10478000C07800F0800058B17A48C06818B1794804
:10479000C16868468847BDF800007549C968C87196
:1047A0007348C068007900F0200088B17048C06884
:1047B000C07800F0200058B16D48C068C079009002
:1047C0006A48C06820B16948C168BDF800008847E0
:1047D00008BD08B566480069007900F0800088B11E
:1047E00063480069C07800F0800058B161480069F2
:1047F00018B16048016968468847BDF800005C4907
:104800000969C8715A480069007900F0200088B130
:1048100057480069C07800F0200058B1544800693A
:10482000C07900905148006920B150480169BDF835
:104830000000884708BD08B54D484069007900F080
:10484000800088B14A484069C07800F0800058B1C3
:104850004848406918B14748416968468847BDF8EB
:10486000000043494969C87141484069007900F036
:10487000200088B13E484069C07800F0200058B15F
:104880003B484069C07900903848406920B13748BA
:104890004169BDF80000884708BD70B58CB004467A
:1048A0000D466DB3FDF759FEC6B28DF80060324873
:1048B00010F824008DF8010000208DF8060001207A
:1048C000ADF802000020ADF804000390059001202F
:1048D000029000208DF810008DF81800274850F83D
:1048E0002400089000200A9007908DF824008DF88D
:1048F0002C006846FDF76DFD214840F8246004E077
:104900001F4951F82400FDF73FFE2A4601212046A9
:10491000FFF76EFD0CB070BD70B504460E4615462F
:10492000174911F824003146FDF711FF144911F819
:1049300024002946FDF738FE114911F82400FDF73F
:1049400049FE70BD10B504460D4911F82400FDF76D
:1049500023FE10BD00F01F02012191404209920088
:1049600002F1E022C2F8001170470000C017FF1FDB
:1049700008840000A817FF1F748400000C13FF1F99
:10498000D817FF1F2DE9FF4F82B004468C46DDF893
:1049900010B0FA4850F82400006800F0004018B940
:1049A000002006B0BDE8F08F4FF0FF324FF0000856
:1049B0004FF000090120019000200090002126E026
:1049C00000231FE0012518E0ED4850F82100DFF832
:1049D000B4E35EF823E000FB0EFE05986843B0FBED
:1049E000FEF6B34508D3ABEB060A524504D952464E
:1049F00088469946009601956D1C032D01D2002A28
:104A0000E2D15B1C102B01D2002ADBD1491C042906
:104A100001D2002AD4D1D94850F824000C3050F8E3
:104A20002C70D94807400198401E58B14FF44030CF
:104A300000EA084040F0004009F00F0E40EA0E0086
:104A4000074308E04FF4403000EA084009F00F0E39
:104A500040EA0E000743C94850F824000C3040F8E3
:104A60002C7000989DE72DE9F84305460C46164644
:104A70001F46DDE90889C14850F825000C3050F880
:104A8000240020F0F041BD4850F825000C3040F8DB
:104A90002410BA4850F825000C3050F82400791E34
:104AA0004FF0F04202EAC1610843B44951F82510C1
:104AB0000C3141F82400B8F1000F03D0B8F1010F18
:104AC0001ED10EE0AD4850F825000C3050F82400FF
:104AD00020F08071A94850F825000C3040F82410CF
:104AE0000FE0A64850F825000C3050F8240040F0A4
:104AF0008071A24850F825000C3040F8241000E0E6
:104B000000BF00BF36B1012E21D0022E3CD0032EB3
:104B100075D156E0994850F825000C3050F8240023
:104B200020F08061954850F825000C3040F82410A2
:104B3000924850F825000C3050F8240020F0007105
:104B40008E4850F825000C3040F8241058E08B486F
:104B500050F825000C3050F8240020F08061874880
:104B600050F825000C3040F82410844850F82500F7
:104B70000C3050F8240040F00071804850F82500B7
:104B80000C3040F824103BE07C4850F825000C30F5
:104B900050F8240040F08061784850F825000C302F
:104BA00040F82410754850F825000C3050F82400C7
:104BB00020F00071714850F825000C3040F82410A6
:104BC0001EE06E4850F825000C3050F8240040F0EC
:104BD00080616A4850F825000C3040F8241067487E
:104BE00050F825000C3050F8240040F00071634864
:104BF00050F825000C3040F8241001E0FFE700BF1A
:104C000000BF69460220FDF757F8E1B24A46284640
:104C1000009BFFF7B7FE594850F825000C3050F8BC
:104C200024005A490843554951F825100C3141F8E0
:104C30002400BDE8F8837CB504465549206851F846
:104C400030000068524A216802EBC10149680843FC
:104C5000216852F8311008604849206851F8200056
:104C6000006840F00100454A216852F821100860B0
:104C7000207910B101281AD10CE04049206851F880
:104C80002000006840F000403C4A216852F82110A2
:104C900008600DE03949206851F82000006820F0D4
:104CA0000040364A216852F82110086000E000BF39
:104CB00000BF3249206851F82000006820F480408D
:104CC0002E4A216852F8211008601146206851F8D8
:104CD000200000682F490843216852F8211008601D
:104CE000A179A068CDE900106379E279E1682068D4
:104CF000FFF7B9FE4FF0FF30204A216852F821102B
:104D0000C8621146206851F82000006820F00100B8
:104D1000216852F8211008607CBDF7B584B00E46BA
:104D2000174604AC02978DF8076008208DF805003F
:104D3000207800F00700009000208DF804008DF826
:104D40000600039000250CE02388C3F38212C3F30E
:104D500044232B44D9B22378C3F3C200FEF7CAFC24
:104D60006D1C2068C0F38430A842EDD86846FFF778
:104D700062FF207800F0070007B0F0BD8C840000CF
:104D8000B4840000C4840000F0FFFC7F00115000D8
:104D900098840000013C1F009C4A52F820201268B1
:104DA00022F48042994B53F820301A6051B1974A4F
:104DB00052F82020126822F40052944B53F820300D
:104DC0001A6009E0914A52F82020126842F4005219
:104DD0008E4B53F820301A6070478C4A52F82020CE
:104DE000126822F48042894B53F820301A6051B186
:104DF000864A52F82020126822F48052834B53F8DE
:104E000020301A6009E0814A52F82020126842F4EA
:104E100080527E4B53F820301A60704730B50B46F5
:104E200023B1012B26D0022B7FD150E052B177491C
:104E300051F82010096B41F00041744C54F82040A7
:104E4000216309E0714951F82010096B21F00041FC
:104E50006E4C54F8204021636D4C215601F01F0523
:104E60000124AC404D09AD0005F1E025C5F8004135
:104E700000BF5BE052B1654951F82010096B41F069
:104E80000071624C54F82040216309E05F4951F8F9
:104E90002010096B21F000715C4C54F82040216314
:104EA00052B15A4951F82010096B41F08071574CAA
:104EB00054F82040216309E0544951F82010096B4F
:104EC00021F08071514C54F8204021632EE052B102
:104ED0004E4951F82010096B41F400314B4C54F805
:104EE0002040216309E0494951F82010096B21F461
:104EF0000031464C54F8204021635AB1434951F8DF
:104F00002010096B41F48031404C54F8204021635B
:104F10000AE00AE03D4951F82010096B21F4803184
:104F20003A4C54F82040216300E000BF00BF30BD80
:104F300011B1384A42F820107047F0B50446059D7B
:104F40004FF0004606EAC5764FF0E04707EA0177E2
:104F50003E4301279F404FF47C1C0CEA07473E4329
:104F600097B23E43294F57F824707E63274E56F878
:104F70002460366B06F0004696B900BF234E56F803
:104F80002460F66A06F00046002EF7D01F4E56F851
:104F90002460F66A46F000461C4F57F82470FE6203
:104FA0001A4E56F82460B66BB0B2F0BD10B5174873
:104FB0000068C06A40F0004014490968C86215489A
:104FC000006810B113490868804710BD10B50F483C
:104FD0004068C06A40F000400C494968C8620D480A
:104FE000406810B10B494868804710BD10B50748AC
:104FF0008068C06A40F0004004498968C86205487A
:10500000806810B103498868804710BD8C84000017
:10501000B0840000EC17FF1F72B64CF220505349C9
:10502000C8814DF62810C88162B67047F8B50446AD
:1050300069460220FCF740FE40F2D316207810B1FA
:10504000012806D102E026F0080603E046F0080633
:1050500000E000BF00BFFFF7DFFF0098C0084FF47B
:105060007A71B0FBF1F0616800FB01F5280C3F4953
:105070008880CD800098C0084FF47A71B0FBF1F0C1
:10508000A16800FB01F5280C384908814D814FF4D7
:10509000E060C88246F001060E80F8BD3EB50446C9
:1050A00000208DF800000194600802906846FFF728
:1050B000BDFF3EBD10B50446FFF7AEFF012C06D183
:1050C0002A48008840F004002849088005E0274865
:1050D000008820F0040025490880012C0AD1162000
:1050E000012181404209920002F1E022C2F8001140
:1050F00000BF08E01620012181401D4A430942F803
:10510000231000BF00BF10BD08B11A4908607047E6
:105110001648808A70474FF6FF701449888270479E
:105120001249098A08041149498A0843704772B62E
:105130004AF202610D4A91814BF28041918162B63F
:10514000002001E000BF401C1428FBD3704710B5BD
:105150000648408840F400400449488005480068FB
:1051600010B104490868804710BD000000200540C8
:1051700080E100E02813FF1F10B504465E48C06BB5
:1051800040F400005C49C8635C490220FCF794FDD0
:105190005A4800685A49B0FBF1F058490860606805
:1051A000096848435749227801EB021108605548C5
:1051B000217800EB0110806840F00101514822780D
:1051C00000EB021081605048006820F002004E4958
:1051D000086010BD7CB505460C468DF80050019462
:1051E0006846FFF7C9FF7CBD30B50B464249C96B25
:1051F00041F40001404CE1636AB1444C215601F096
:105200001F050124AC404D09AD0005F1E025C5F8AE
:10521000004100BF00BF52B13A4901EB001189685B
:1052200041F00204374901EB00118C6009E0354977
:1052300001EB0011896821F00204324901EB0011F1
:105240008C604AB92F4901EB0011C96841F0010493
:105250002C4901EB0011CC6030BD2A4901EB001153
:10526000896821F00102274901EB00118A60254974
:1052700001EB0011896841F00102224901EB0011A4
:105280008A60704701461F4800EB01104068704774
:10529000194AD26B42F40002174BDA6311B11C4A6F
:1052A00042F82010704710B50446164800EB041071
:1052B000C06840F00101134800EB0410C1601448BD
:1052C00050F8240018B1124951F82400804710BD4D
:1052D00010B50020FFF7E7FF10BD10B50120FFF764
:1052E000E2FF10BD10B50220FFF7DDFF10BD10B5C5
:1052F0000320FFF7D8FF10BD008004402C13FF1FD0
:1053000040420F000071034000700340048500001C
:10531000F817FF1FF8B50446002209210420FEF704
:105320003DFB012000232C22194600900220FFF7AC
:1053300004FE012209210420FEF730FB002517E0BE
:10534000002611E0002022120346014600900220B0
:10535000FFF7F3FD0020034622460146009002209D
:10536000FFF7EBFD701CC6B2802EEBDB681CC5B2EC
:10537000802DE5DBF8BD08B5042214210120FEF7DD
:10538000FEFA042208211046FEF7F9FA0422092148
:105390001046FEF7F4FAFE4A00214EF68A20FFF787
:1053A000BCFC01210220FFF7F7FC002208210420A9
:1053B000FEF7F4FA6420FCF7FEFC01220821042029
:1053C000FEF7ECFA6420FCF7F6FC00220921042029
:1053D000FEF7E4FA00200346112201460090022065
:1053E000FFF7ABFD1420FCF7E6FC00200346262265
:1053F000014600900220FFF7A0FD012209210420B0
:10540000FEF7CCFA00200346042201460090022059
:10541000FFF793FD002209210420FEF7BFFA0020C8
:105420000346B122014600900220FFF786FD0122CB
:1054300009210420FEF7B2FA002003460E2201469D
:1054400000900220FFF779FD00200346102201465C
:1054500000900220FFF771FD002209210420FEF7D1
:105460009DFA00200346C022014600900220FFF76B
:1054700064FD012209210420FEF790FA0020034672
:105480000822014600900220FFF757FD0020034646
:105490000246014600900220FFF74FFD002209213D
:1054A0000420FEF77BFA00200346C122014600904B
:1054B0000220FFF742FD012209210420FEF76EFAC7
:1054C000002003460522014600900220FFF735FD2B
:1054D000002209210420FEF761FA00200346C522BC
:1054E000014600900220FFF728FD01220921042037
:1054F000FEF754FA002003463822014600900220AD
:10550000FFF71BFD002003464022014600900220C9
:10551000FFF713FD002209210420FEF73FFA0020C7
:1055200003463A22014600900220FFF706FD0122C1
:1055300009210420FEF732FA002003460522014625
:1055400000900220FFF7F9FC002209210420FEF759
:1055500025FA002003463622014600900220FFF77C
:10556000ECFC012209210420FEF718FA0020034672
:10557000C822014600900220FFF7DFFC002209212B
:105580000420FEF70BFA002003462A220146009071
:105590000220FFF7D2FC012209210420FEF7FEF9C8
:1055A000002003460246014600900220FFF7C5FC9A
:1055B000002003460246014600900220FFF7BDFC92
:1055C000002003460246014600900220FFF7B5FC8A
:1055D000002003467F22014600900220FFF7ADFC29
:1055E000002209210420FEF7D9F9002003462B22CE
:1055F000014600900220FFF7A0FC012209210420AF
:10560000FEF7CCF900200346024601460090022036
:10561000FFF793FC0020034602460146009002205B
:10562000FFF78BFC00200346024601460090022053
:10563000FFF783FC002003469F22014600900220D2
:10564000FFF77BFC002209210420FEF7A7F90020C8
:105650000346B422014600900220FFF76EFC0122AF
:1056600009210420FEF79AF900200346024601466C
:1056700000900220FFF761FC002209210420FEF7C0
:105680008DF900200346F222014600900220FFF728
:1056900054FC012209210420FEF780F90020034672
:1056A0000122014600900220FFF747FC0022092159
:1056B0000420FEF773F900200346E0220146009023
:1056C0000220FFF73AFC012209210420FEF766F9C7
:1056D000002003463F22014600900220FFF72DFCE8
:1056E000002003462222014600900220FFF725FCFD
:1056F000002003462022014600900220FFF71DFCF7
:10570000002003463022014600900220FFF715FCDE
:10571000002003462922014600900220FFF70DFCDD
:10572000002003460C22014600900220FFF705FCF2
:10573000002003464E22014600900220FFF7FDFBA9
:1057400000200346B722014600900220FFF7F5FB38
:10575000002003463C22014600900220FFF7EDFBAB
:10576000002003461922014600900220FFF7E5FBC6
:10577000002003462222014600900220FFF7DDFBB5
:10578000002003461E2201460090022002E0000095
:1057900040787D01FFF7D1FB00200346022201463D
:1057A00000901046FFF7C9FB002003460122014686
:1057B00000900220FFF7C1FB00200346024601468D
:1057C00000900220FFF7B9FB002209210420FEF718
:1057D000E5F800200346E122014600900220FFF791
:1057E000ACFB012209210420FEF7D8F80020034673
:1057F0000246014600900220FFF79FFB002003466F
:105800001B22014600900220FFF797FB0020034671
:105810001F22014600900220FFF78FFB0020034665
:105820000F22014600900220FFF787FB002003466D
:105830001622014600900220FFF77FFB002003465E
:105840001322014600900220FFF777FB0020034659
:105850003122014600900220FFF76FFB0020034633
:105860008422014600900220FFF767FB00200346D8
:105870004322014600900220FFF75FFB0020034611
:105880000622014600900220FFF757FB0020034646
:105890001D22014600900220FFF74FFB0020034627
:1058A0002122014600900220FFF747FB002003461B
:1058B0003D22014600900220FFF73FFB00200346F7
:1058C0003E22014600900220FFF737FB00200346EE
:1058D0003F22014600900220FFF72FFB0022092102
:1058E0000420FEF75BF800200346292201460090C1
:1058F0000220FFF722FB4FF6FF70FFF70BFD08BDFC
:10590000F8B504460D461646002209210420FEF78C
:1059100045F8002003462A22014600900220FFF7A6
:105920000CFB012209210420FEF738F80020034671
:105930002246014600900220FFF7FFFA00200346AE
:105940002246014600900220FFF7F7FA00220921C3
:105950000420FEF723F8002003462B220146009086
:105960000220FFF7EAFA012209210420FEF716F8C7
:10597000002003462A46014600900220FFF7DDFA88
:10598000002003462A46014600900220FFF7D5FA80
:10599000002209210420FEF701F8002003462C22F2
:1059A000014600900220FFF7C8FA012209210420D5
:1059B000FDF7F4FF0020321203460146009002205A
:1059C000FFF7BBFA00200346324601460090022052
:1059D000FFF7B3FAF8BD08B5002209210420FDF74E
:1059E000DDFF002003462822014600900220FFF739
:1059F000A4FA002003461022014600900220FFF77F
:105A00009CFA08BD08B5002209210420FDF7C6FF55
:105A1000002003461122014600900220FFF78DFA74
:105A2000002003462922014600900220FFF785FA54
:105A300008BD2DE9FF4F83B0834688469146DDE9D6
:105A400010562846E91705EB5171C910491CC9B217
:105A50000191F11706EB5171C910A6EBC10119B9FB
:105A60000198401EC0B20190BBF1200F02DA07B0CE
:105A7000BDE8F08FABF1200000F0FF0B01990BFBAC
:105A800001F0704300904FF0000A5CE0002752E004
:105A9000009838440AFB06010698405C0290019881
:105AA000824520DA00241BE00298204100F001002A
:105AB00050B1129B9AB209EB0703D9B208EB040369
:105AC000D8B2FFF71DFF09E0139B9AB209EB070359
:105AD000D9B208EB0403D8B2FFF712FF601CC4B2BE
:105AE000082CE1DB25E000241BE00298204100F0B7
:105AF000010050B1129B9AB209EB0703D9B208EB2F
:105B00000403D8B2FFF7FCFE09E0139B9AB209EB3D
:105B10000703D9B208EB0403D8B2FFF7F1FE601C0B
:105B2000C4B2E91705EB5171C910A5EBC101A1423F
:105B3000DBDC781CC7B2B742AADB08F108080AF11F
:105B4000010000F0FF0A019882459FDB00BF8EE74D
:105B50007FB504460D46164600224FF6FF731948DE
:105B6000407918490979CDE90232CDE9001015488C
:105B70003246294683682046FFF75BFF7FBD0FB49E
:105B8000F0B591B005460E4619A810906846109AD7
:105B9000189901F061FF074600201090002409E0E9
:105BA000084A127904FB02511DF804003246FFF73F
:105BB000CFFF641CBC42F3DB384611B0F0BC5DF88B
:105BC00014FB00003413FF1F10B500207149C87783
:105BD00071480088401C704908800020FCF7F4FBE5
:105BE0006C48406A40F001006A49486210BD10B537
:105BF000002406E0002221460420FDF7C0FE601CC0
:105C0000C4B2082CF6DB6548006820F0FF00644948
:105C1000C1F8140101220A210420FDF7B0FE01227F
:105C20000B210420FDF7ABFE01220E210320FDF71E
:105C3000A6FE012300220A210420FDF719FF0123FB
:105C400005220B210420FDF713FF5B2000F098F8DC
:105C5000012305220E210320FDF70AFF5A2000F040
:105C60008FF802204F4908705B2000F089F800206F
:105C70004D49087035204870012048804FF4A070CD
:105C80008880002088714548001FC8600020486156
:105C90008860087408764548086200208862012000
:105CA000C861002081F8240081F82C000846FCF728
:105CB00090FB012211460020FCF7D7FCAFF2F70160
:105CC0000020FCF718FD0020FCF77EFB10BD10B58E
:105CD000374800680121B1EBD02F2AD1881E344902
:105CE00008603048007800B110BD002031490880BC
